S014000061746D6567615F6C696768742E737265632A
S11300000C9440000C945D000C945D000C945D0015
S11300100C945D000C945D000C945D000C945D00E8
S11300200C945D000C945D000C945D000C945D00D8
S11300300C945D000C945D000C945D000C945D00C8
S11300400C945D000C945D000C94190C0C945D00F0
S11300500C945D000C945D000C945D000C945D00A8
S11300600C945D000C945D00A407C107B607E90772
S1130070EC07F00AF00A100A4A0A9909E3093F0951
S113008011241FBECFEFD8E0DEBFCDBF14E0A0E047
S1130090B1E0E4E3F9E102C005900D92A63FB10797
S11300A0D9F726E0A6EFB4E001C01D92AF39B2073C
S11300B0E1F70E94FF0A0C94980C0C940000DC01F8
S11300C050E0E52FF0E0242F30E021503109E21711
S11300D0F3078CF4109779F09C91992361F01196B1
S11300E08FE9890F8A3108F49052FB01E50FF11D65
S11300F090835F5FE6CFFB01E50FF11D1082089549
S113010080E480937C0087E880937A000895EAE78E
S1130110F0E080818064808380917A0086FDFCCF4A
S11301208091780090917900089581E284BD81E006
S113013085BD8AB180628AB918BC089580939B05F5
S113014088BD089580E58CBD81E08DBD84B1886251
S113015084B984B18F7E84B984B1846084B984B154
S1130160826084B984B1816084B985B1846085B9C1
S113017085B1816085B908958EBD0DB407FEFDCFAC
S1130180089595B19B7F95B995B19D7F95B90E94CE
S1130190BC0085B1846085B9089595B19B7F95B9FC
S11301A095B1926095B90E94BC0085B1846085B90F
S11301B00895CF92DF92EF92FF920F931F93CF9304
S11301C0DF93D82EC92E162F072FF42EE52EC22F1B
S11301D0D32F8AE20E94C1008C2D0E94CD008D2D68
S11301E00E94CD008E2D0E94CD008F2D0E94CD0047
S11301F08BE20E94C100802F0E94CD00812F0E94BB
S1130200CD008D2F0E94CD008C2F0E94CD008CE25A
S11302100E94C100DF91CF911F910F91FF90EF9049
S1130220DF90CF900895EF92FF920F931F93CF9397
S1130230DF93182F092F21ED30E04FE351E060E008
S113024070E080E090E00E94D90085B18B7F85B991
S113025085B1826085B9E12CF12C82EDE816F104B8
S113026090F4C0E0D0E0C03481E0D80740F4802F9F
S11302700E94BC00812F0E94BC002196F4CF8FEF16
S1130280E81AF80AEACF85B1846085B9DF91CF9185
S11302901F910F91FF90EF900895CF92DF92EF920C
S11302A0FF920F931F93CF93DF937A0169019C010F
S11302B0240F351F2134314028F020E431E0790146
S11302C0E81AF90A9B012C0D3D1D233D310528F048
S11302D022ED30E06901C61AD70A9601260F371FAE
S11302E021503109A701480F591F415051090E945B
S11302F0D90085B18B7F85B985B1826085B9C0E0AD
S1130300D0E0EC9CC001ED9C900DFC9C900D112460
S1130310C817D90740F4812F0E94BC00802F0E9487
S1130320BC002196EECF85B1846085B9DF91CF9171
S11303301F910F91FF90EF90DF90CF9008956F92EF
S11303407F928F929F92AF92BF92CF92DF92EF9261
S1130350FF920F931F93CF93DF937C016B014901AD
S11303605801403239F427E030E045E050E00E9483
S11303704D016BC08FE9840F8A3108F4405288E143
S1130380840F843088F080E2840F843078F087E032
S1130390840F843068F084E1840F843058F08EE058
S11303A0840F843048F009C045E407C041E405C027
S11303B045E503C049E401C04FE40F2EF0EE6F2E73
S11303C0F02D640E8AE3861508F43FC08615E8F123
S11303D0D0E0D530D0F5862D90E0FC01EE0FFF1F64
S11303E0EE0FFF1FE80FF91FE253FC4FED0FF11D55
S11303F07080C0E0C73038F5872D90E00C2E02C025
S1130400959587950A94E2F780FF0EC0840121E058
S113041030E041E050E0B6016C0F711DC7018D0F53
S1130420911D0E944D010DC0850121E030E041E0A5
S113043050E0B6016C0F711DC7018D0F911D0E9414
S11304404D01CF5FD7CFDF5FC4CFDF91CF911F9135
S11304500F91FF90EF90DF90CF90BF90AF909F905F
S11304608F907F906F9008958F929F92AF92BF92DA
S1130470CF92DF92EF92FF920F931F93CF93DF936C
S11304807C014B01EA01590168014881442359F078
S113049086019501B401C7010E949F0186E0E80E20
S11304A0F11C2196F2CFDF91CF911F910F91FF9014
S11304B0EF90DF90CF90BF90AF909F908F90089572
S11304C00F931F93CF936BE571E088E391E00E9453
S11304D0800C892B09F450C061E671E088E391E057
S11304E00E94800C892B09F447C0C0E0C23060F43C
S11304F08FEF9FEF0E94130183EC99E00197F1F7CE
S113050000C00000CF5FF2CF0FEF1FEF2FEF3FEFE0
S113051045E651E066E970E088E290E00E9434022A
S11305202FEF3FEF4AE951E062EA70E088E290E0A1
S11305300E9434026AE771E088E091E00E94800C36
S1130540892B59F06EE771E088E091E00E94800CFD
S1130550892B31F04CE451E005C048E451E002C07D
S113056041E551E00FEF1FEF2FEF3FEF62EA70E03C
S113057086E790E00E943402CF911F910F91089575
S11305801092C50083E38093C40088E98093C1007E
S113059086E08093C20008950F931F9380E090E05B
S11305A00E94130100E010E02FEA30E046E351E03E
S11305B06EE170E085E090E00E944D0108E012E4F5
S11305C021E030E046E351E06EE170E085E090E048
S11305D00E944D0121E030E046E351E06CEC70E014
S11305E085E090E00E944D012FEA30E041E050E0C8
S11305F06EE170E085E090E00E944D012FEA30E06A
S113060041E050E06EE170E08AE391E00E944D0128
S113061021E030E048E151E066E470E084E190E0FC
S11306200E944D011F910F910895FF920F931F9304
S1130630CF93DF93CDB7DEB7E5970FB6F894DEBF5F
S11306400FBECDBFF82E80915605811105C00E94C2
S1130650CC0281E08093560580911801882319F01B
S113066008E111E002C008E811E066E375E0C801A2
S11306700E94800C892B39F14FE150E0B80186E3E8
S113068095E00E94890C1092550540E3BE016F5F0E
S11306907F4FC8010E945F0000E010E020E130E0DD
S11306A048E151E064E370E084E190E00E944D0190
S11306B02FEF3FEFAE014F5F5F4F64E370E084E1E3
S11306C090E00E9434026AE771E088E091E00E94C1
S11306D0800C892B59F06EE771E088E091E00E946C
S11306E0800C892B31F00CE411E005C008E411E022
S11306F002C001E511E066E275E088E091E00E9445
S1130700800C892B09F44BC04FE050E068E071E0A5
S113071086E295E00E94890C10923505A2E9B1E0C9
S113072080E09C91992361F08F3250F41196E1E0BE
S1130730F0E0EC0FFD1FE80FF11D90838F5FF1CF08
S1130740F8019081992369F08F3258F40F5F1F4F9D
S1130750E1E0F0E0EC0FFD1FE80FF11D90838F5FE7
S1130760EFCFE1E0F0E0EC0FFD1FE80FF11D108288
S113077000E010E020E130E048E151E069E470E09D
S113078084E190E00E944D012FEF3FEFAE014F5FF7
S11307905F4F69E470E084E190E00E94340280914C
S11307A05F0581110BC06EE771E088E091E00E9463
S11307B0800C892B31F40EEA11E005C00FE515E039
S11307C002C008EA11E0F11008C066E075E0C80153
S11307D00E94800C892B09F44FC04FE150E0B8010E
S11307E086E095E00E94890C10922505A8EBB1E003
S11307F080E09C91992361F08F3250F41196E1E0EE
S1130800F0E0EC0FFD1FE80FF11D90838F5FF1CF37
S1130810F8019081992391F08F3280F40F5F1F4F7C
S11308202FE9290F2A3108F49052E1E0F0E0EC0FAF
S1130830FD1FE80FF11D90838F5FEACFE1E0F0E048
S1130840EC0FFD1FE80FF11D108200E010E020E125
S113085030E048E151E069E570E084E190E00E9415
S11308604D012FEF3FEFAE014F5F5F4F69E570E041
S113087084E190E00E94340280917F05882319F07E
S11308800FE715E002C004EC11E0F11008C066EFB8
S113089074E0C8010E94800C892B09F44FC04FE01A
S11308A050E0B80186EF94E00E94890C109205058F
S11308B0ABECB1E080E09C91992361F08F3250F46D
S11308C01196E1E0F0E0EC0FFD1FE80FF11D9083BD
S11308D08F5FF1CFF8019081992391F08F3280F4EA
S11308E00F5F1F4F2FE9290F2A3108F49052E1E0DE
S11308F0F0E0EC0FFD1FE80FF11D90838F5FEACF4E
S1130900E1E0F0E0EC0FFD1FE80FF11D108200E0C4
S113091010E020E130E048E151E069E670E084E174
S113092090E00E944D012FEF3FEFAE014F5F5F4F0C
S113093069E670E084E190E00E9434022091900521
S113094080910301281709F48EC020930301A5EDBB
S1130950B1E080E09C91992361F08F3250F41196BC
S1130960E1E0F0E0EC0FFD1FE80FF11D90838F5FD5
S1130970F1CF21110AC0E1E0F0E0EC0FFD1FE80F18
S1130980F11D90E390838F5F33C090E02223D9F070
S11309909330C8F4E1E3F0E0EC0FFD1FE90FF11D23
S11309A03DEC239F312D1124369536953695532FE2
S11309B0550F452F440F440F450F241B205D208302
S11309C0232F9F5FE3CF992399F08F3288F49150BE
S11309D0E1E3F0E0EC0FFD1FE90FF11D2081E1E000
S11309E0F0E0EC0FFD1FE80FF11D20838F5FEBCFCC
S11309F021E0280FE1E0F0E0EC0FFD1FE80FF11D0E
S1130A009FE2908392E0980FE1E0F0E0EC0FFD1F8D
S1130A10E20FF11D21E320838D5FE1E0F0E0EC0FB4
S1130A20FD1FE90FF11D97E39083E1E0F0E0EC0F87
S1130A30FD1FE80FF11D108200E010E020E130E01E
S1130A4048E151E069E770E084E190E00E944D01E3
S1130A502FEF3FEFAE014F5F5F4F69E770E084E136
S1130A6090E00E94340280918F05882311F021E0E8
S1130A7001C020E080910201281709F464C020938A
S1130A800201A9EEB1E080E09C91992361F08F32DC
S1130A9050F41196E1E0F0E0EC0FFD1FE80FF11DBA
S1130AA090838F5FF1CF2223A1F091E0980FE1E0D2
S1130AB0F0E0EC0FFD1FE80FF11D2FE420838E5FA3
S1130AC0E1E0F0E0EC0FFD1FE90FF11D9EE49083DF
S1130AD01CC091E0980FE1E0F0E0EC0FFD1FE80F7F
S1130AE0F11D2FE4208322E0280FE1E0F0E0EC0F79
S1130AF0FD1FE90FF11D96E490838D5FE1E0F0E0C6
S1130B00EC0FFD1FE20FF11D9083E1E0F0E0EC0F2C
S1130B10FD1FE80FF11D108200E010E020E130E03D
S1130B2048E151E069E870E084E190E00E944D0101
S1130B302FEF3FEFAE014F5F5F4F69E870E084E154
S1130B4090E00E9434020091990510919A058091D9
S1130B500001909101010817190709F48AC0109344
S1130B60010100930001ACEFB1E040E08C918823D7
S1130B7061F04F3250F41196E1E0F0E0EC0FFD1F0C
S1130B80E40FF11D80834F5FF1CF0115110551F47E
S1130B90E1E0F0E0EC0FFD1FE40FF11D80E3808342
S1130BA04F5F49C050E00115110581F1543070F5D3
S1130BB09801ADECBCEC0E94680C969587959695CF
S1130BC08795969587959C01220F331F880F991F4F
S1130BD0880F991F880F991F820F931F9801281B54
S1130BE0390BC901E1E3F0E0EC0FFD1FE50FF11D46
S1130BF0805D808398010E94680C8C01169507958E
S1130C0016950795169507955F5FCDCF552399F0F7
S1130C104F3288F45150E1E3F0E0EC0FFD1FE50F93
S1130C20F11D8081E1E0F0E0EC0FFD1FE40FF11D08
S1130C3080834F5FEBCFE1E0F0E0EC0FFD1FE40FAA
S1130C40F11D108200E010E020E130E048E151E0C5
S1130C5069E970E084E190E00E944D012FEF3FEFDD
S1130C60AE014F5F5F4F69E970E084E190E00E945C
S1130C703402E5960FB6F894DEBF0FBECDBFDF9108
S1130C80CF911F910F91FF90089580E00E9415036A
S1130C9008959091C00095FFFCCF8093C6000895FD
S1130CA0CF93DF93EC018881882321F021960E9461
S1130CB04906F9CFDF91CF91089585B18E7F85B92B
S1130CC087E893E10197F1F700C0000085B18160E6
S1130CD085B987E893E10197F1F700C0000081E04E
S1130CE00E94C1008BE792E90197F1F700C0000070
S1130CF081E10E94C1008BE792E90197F1F700C0FE
S1130D0000008AE30E94C10085E50E94CD0083ECC7
S1130D1099E00197F1F700C0000086E30E94C1004A
S1130D2080EA0E94CD0083EC99E00197F1F700C0BE
S1130D30000081E20E94C10083EC99E00197F1F781
S1130D4000C0000089E20E94C10087EA91E6019791
S1130D50F1F700C0000080E090E00E94130183EDF1
S1130D6090E30197F1F700C000000E94450681E07E
S1130D7080935D058AE092E00E94500608951F93D7
S1130D80CF93DF93CDB7DEB761970FB6F894DEBF8C
S1130D900FBECDBF182F81E1EFE1F2E0DE01119625
S1130DA001900D928A95E1F7812F82958F70E1E091
S1130DB0F0E0EC0FFD1FE80FF11D80810E94490651
S1130DC01F70E1E0F0E0EC0FFD1FE10FF11D8081E9
S1130DD00E94490661960FB6F894DEBF0FBECDBFE0
S1130DE0DF91CF911F9108951F93CF93DF9300D08C
S1130DF000D000D0CDB7DEB7AC01892B21F480E35D
S1130E000E94490641C010E04115510581F1153099
S1130E1070F59A01ADECBCEC0E94680C9695879530
S1130E2096958795969587959C01220F331F880F79
S1130E30991F880F991F880F991F820F931F9A017A
S1130E40281B390BC901E1E0F0E0EC0FFD1FE10FB5
S1130E50F11D805D80839A010E94680CAC01569557
S1130E60479556954795569547951F5FCDCF1123C6
S1130E7059F01150E1E0F0E0EC0FFD1FE10FF11D1E
S1130E8080810E944906F3CF26960FB6F894DEBF00
S1130E900FBECDBFDF91CF911F9108950F931F9384
S1130EA0CF93DF938B01D42F0E944906C0E0CD1766
S1130EB040F4F801EC0FF11D80810E944906CF5FD8
S1130EC0F6CF8AE00E944906DF91CF911F910F91DE
S1130ED00895EF92FF920F931F93CF93DF9300D067
S1130EE0CDB7DEB780919E05882309F47FC3809136
S1130EF09F0580939C0580915C05882331F0809147
S1130F000601833020F480E003C080E001C081E06A
S1130F10882321F080E392E00E94500680919C0592
S1130F200E94BF0682EB93E00E945006E0919C056C
S1130F308E2F90E0FC013197EC30F10508F050C39E
S1130F40EC5CFF4F0C94620C8091990590919A058A
S1130F5089838091990590919A059A8342E0BE0114
S1130F606F5F7F4F81E00E944E073AC380919B05DB
S1130F70898341E0BE016F5F7F4F83E00E944E078B
S1130F802FC380919E05823008F42AC31091A005D6
S1130F9080915C05882331F080910601823020F431
S1130FA080E003C080E001C081E0882321F08CE46C
S1130FB092E00E945006812F90E00E94F40682EB9A
S1130FC093E00E945006812F0E949E000E946002BE
S1130FD007C30E94600204C380919E05823008F416
S1130FE0FFC280919E05823030F08091A0058093ED
S1130FF00701E2E001C0E1E080919E05E81760F599
S113100001E00E0FF0E0E156FA4F1081103160F468
S1131010212F30E0200F311D80919E0590E0821732
S1131020930724F480E003C080E001C081E08823BA
S113103091F0E12EF12C602F70E061567A4FA701F8
S113104088E391E00E94770CF701E85CFE4F108280
S1131050E02FE10F01C0E02F80919E05E81760F5B5
S113106001E00E0FF0E0E156FA4F1081103260F407
S1131070212F30E0200F311D80919E0590E08217D2
S1131080930724F480E003C080E001C081E088235A
S113109091F0E12EF12C602F70E061567A4FA70198
S11310A088E191E00E94770CF701E85EFE4F108220
S11310B0E02FE10F01C0E02F80919E05E81760F555
S11310C001E00E0FF0E0E156FA4F1081103160F4A8
S11310D0212F30E0200F311D80919E0590E0821772
S11310E0930724F480E003C080E001C081E08823FA
S11310F091F0E12EF12C602F70E061567A4FA70138
S113110088E091E00E94770CF701E85FFE4F1082BF
S1131110E02FE10F01C0E02F80919E05E81740F415
S1131120AE2FB0E0A156BA4F8C9180939005EF5F3B
S113113080919E05E817B0F501E00E0FF0E0E1564E
S1131140FA4F1081103158F5112361F0212F30E04E
S1131150200F311D80919E0590E08217930724F49F
S113116080E003C080E001C081E0882391F0E12E9B
S1131170F12C602F70E061567A4FA7018FE795E05C
S11311800E94770CF701E158FA4F1082E02FE10F2B
S113119009C0111106C010927F05E02F03C0E02F93
S11311A001C0E02F80919E05E81740F4AE2FB0E017
S11311B0A156BA4F8C9180938F05EF5F80919E0565
S11311C0E81740F4AE2FB0E0A156BA4F8C9180934B
S11311D05E05EF5F80919E05E817E0F481E08E0FD5
S11311E0F0E0E156FA4FE081EE2361F04E2F50E03B
S11311F0480F511D20919E0530E02417350724F433
S113120090E003C090E001C091E0992311F0E80F51
S113121001C0E82F80919E05E81768F561E06E0F24
S1131220F0E0E156FA4F00818FEF800F8F3160F4C8
S1131230202F30E0260F311D80919E0590E082170B
S1131240930724F480E003C080E001C081E0882398
S113125071F010E070E061567A4FA8018FE595E0D7
S11312600E94770CF801E15AFA4F108204C0011170
S113127002C010925F0581E00E941503B1C1809104
S11312809E05823008F4ACC11091A005103108F01D
S1131290A7C1112361F0212F30E02E5F3F4F8091D1
S11312A09E0590E08217930724F480E003C080E059
S11312B001C081E0882379F0E12EF12CA70161EAD5
S11312C075E08FE795E00E94770CF701E158FA4F3B
S11312D010821E5F07C0111104C010927F0512E036
S11312E001C012E0212F30E0A9014E5F5F4F8091D1
S11312F09E0590E084179507C4F01F5FF901E1563D
S1131300FA4F808180938F05E12FF0E0E156FA4F88
S1131310808180935E0584E68093980580918F0593
S1131320811180915E050E949E0081E00E94150358
S113133057C180919E05823008F452C18091A00566
S113134080935C0580915C05882331F080910601CF
S1131350823020F480E003C080E001C081E0882373
S113136021F08CE692E00E94500680915C0588236F
S1131370A9F080915C05882331F0809106018230C8
S113138020F480E003C080E001C081E0882309F4F8
S113139027C182EA93E00E94500622C180915C0535
S11313A0882331F080910601823020F480E003C06C
S11313B080E001C081E0882309F412C18AE792E049
S11313C00E9450060DC180919E05823008F408C128
S11313D08091A0058093060180910601843018F065
S11313E083E08093060180915C05882331F080912D
S11313F00601823020F480E003C080E001C081E077
S1131400882321F085E892E00E945006809106012D
S113141090E00E94F40682EB93E00E945006E0C044
S113142080919E05833008F4DBC0EFE9F5E021816B
S1131430828190E0982F8827822B90939705809340
S113144096051092950510929405109293051092AA
S1131450920581E08093910580915C05882331F0A9
S113146080910601823020F480E003C080E001C056
S113147081E0882321F08FE992E00E945006809158
S11314809605909197050E94F40682EB93E00E94E2
S11314905006A6C080919105882331F080919E0565
S11314A0843020F4F12C04C0F12C02C0FF24F39406
S11314B0FF2009F495C0EFE9F5E02181828190E0F5
S11314C0982F8827822B03812FEF200F203460F47C
S11314D020919E0530E024503109402F50E024171C
S11314E035071CF4F12C01C0F12CFF2009F478C05D
S11314F09C010024369527950794369527950794E3
S1131500322F202DC9019695879560E471E00E94E1
S11315104E0CFC01C90160E872E00E944E0C802F61
S11315208695AF01480F511D413481E0580710F0F2
S113153040E451E0415051099B01CF010E94D90080
S113154085B18B7F85B985B1826085B910E01017AC
S113155048F4E12FF0E0ED55FA4F80810E94BC0081
S11315601F5FF5CF85B1846085B980919405909112
S11315709505800F911D9093950580939405809116
S1131580920590919305019690939305809392050B
S11315902091940530919505809196059091970539
S11315A028173907E8F01092910580915C0588238B
S11315B031F080910601823018F4F12C01C0F12C35
S11315C0FF2021F087EC92E00E9450068091940560
S11315D0909195050E94F40689EE92E00E945006CF
S11315E010929E0510929C0510929D050F900F90ED
S11315F0DF91CF911F910F91FF90EF90089584B7E1
S1131600877F84BF0FB6F894A895809160008861A5
S113161080936000109260000FBE8FE493EC0197FA
S1131620F1F700C000000E94C00287EA91E601972A
S1131630F1F700C0000082EF92E00E9450068AE1B8
S113164093E00E9450068EE293E00E9450060E94AE
S1131650800089E493E00E9450060E9495008BE587
S113166093E00E9450060E94A2008DE693E00E943F
S1131670500687EA91E60197F1F700C000000E9446
S11316805D068AE092E00E94500685E0EFE7F3E011
S1131690A8E3B1E001900D928A95E1F78AE0E8E8C9
S11316A0F1E0A8E1B1E001900D928A95E1F78AE0BA
S11316B0EEE7F1E0A8E0B1E001900D928A95E1F740
S11316C01092900581E080938F058FEF80935E05E3
S11316D080E88093070184E893E00E9450067894A0
S11316E087E993E00E9450068CEA93E00E9450063A
S11316F080919D0581110E94690780915B058F5F30
S113170080935B05853038F110925B050E94870059
S113171090939A058093990580919805882369F0A0
S11317208091980581508093980580918F0581114F
S113173080915E050E949E000EC080919905909153
S11317409A05843F914020F080E00E949E0003C0EF
S11317508FEF0E949E008091590590915A05019641
S113176090935A05809359050A9768F110925A0587
S1131770109259052091990530919A0580910401A0
S1131780909105018217930738F4209199053091BF
S11317909A05281B390B08C02091990530919A05A8
S11317A0AC01421B530B9A012530310510F401960C
S11317B051F40E9445068091990590919A05909361
S11317C00501809304018091570590915805019675
S11317D090935805809357058A3F910518F110920C
S11317E058051092570585EB93E00E9450068091AE
S11317F0990590919A050E94F40685EC93E00E9465
S113180050068091990590919A05892F0E94BF06F0
S11318108091990590919A050E94BF068AEC93E005
S11318200E94500687E893E10197F1F700C0000099
S11318305FCF1F920F920FB60F9211248F939F9335
S1131840EF93FF938091C6008A3011F08D3041F4FC
S113185080919E058823C9F081E080939D0515C081
S113186090919D05911111C090919E059F3F59F053
S1131870E0919E0591E09E0F90939E05F0E0E15665
S1131880FA4F808302C010929E05FF91EF919F91C1
S11318908F910F900FBE0F901F901895AA1BBB1B22
S11318A051E107C0AA1FBB1FA617B70710F0A61B5C
S11318B0B70B881F991F5A95A9F780959095BC017D
S11318C0CD010895EE0FFF1F0590F491E02D0994CA
S11318D0A29FB001B39FC001A39F700D811D11246D
S11318E0911DB29F700D811D1124911D0895FB015E
S11318F0DC0102C001900D9241505040D8F7089588
S1131900FB01DC018D91019080190110D9F3990B31
S11319100895FB01DC014150504048F001900D92C4
S11319200020C9F701C01D9241505040E0F70895CE
S1071930F894FFCF55
S1131934FFFFFFFFFFFF02807573620000000000D9
S1131944000000000000000050726F66696C65209E
S1131954310000000000000000000000000000004E
S113196400000000000000006461746100000000D5
S113197400000000000000005553420049444C4557
S113198400424C5545544F4F544800696D61676596
S1131994006769660057454C434F4D4520544F201A
S11319A44D59204B45595041440075736200626C93
S11319B47565746F6F74680050726F66696C652026
S11319C431004D4F444520444520434F4E4E45433A
S11319D454494F4E203A2000576972656400426CA2
S11319E47565746F6F746800415050415245494C99
S11319F4203A2000415543554E4500544F55434821
S1131A0445203A2000544F5543484520434F4E4601
S1131A144947555245203A2000524554524F2D45CA
S1131A24434C414952414745203A20004C554D49C5
S1131A344E4F53495445203A2000535437373839CC
S1131A4420696E697469616C697A65640D0A003091
S1131A54313233343536373839414243444546000C
S1131A645B554152545D20436F6D6D616E64207209
S1131A74656365697665643A203078005B55415244
S1131A84545D2053657474696E67204C4544206228
S1131A9472696768746E6573733A20005B554152CA
S1131AA4545D204465627567200064697361626CE7
S1131AB465640D0A005B554152545D204C6F6720E8
S1131AC46C6576656C2073657420746F3A20005BD2
S1131AD4554152545D205374617274696E67206970
S1131AE46D61676520726563657074696F6E2C201F
S1131AF473697A653A20005B554152545D20496DFF
S1131B0461676520726563657074696F6E20636FC5
S1131B146D706C6574652C20002062797465730D96
S1131B240A000D0A3D3D3D2041546D656761333221
S1131B343850204C6967687420436F6E74726F6CFC
S1131B446C6572203D3D3D0D0A00554152542042BE
S1131B546175643A203131353230300D0A00426FF8
S1131B646F742073657175656E6365207374617237
S1131B747465642E2E2E0D0A0041444320696E6957
S1131B847469616C697A65640D0A0050574D206963
S1131B946E697469616C697A65640D0A005350490D
S1131BA420696E697469616C697A65640D0A0064FC
S1131BB4617461005541525420696E697469616CA1
S1131BC4697A65640D0A00496E746572727570747D
S1131BD47320656E61626C65640D0A00526561640C
S1131BE479210D0A005B4C494748545D204C6576C5
S1131BF4656C3A20002028307800290D0A00000082
S1131C0400000000005F00000007000700147F14B8
S1131C147F14242A7F2A1223130864623649552226
S1131C24500005030000001C2241000041221C0056
S1131C3414083E081408083E08080000A0600008C0
S1131C4408080808006060000020100804023E51DF
S1131C5449453E00427F4000426151494621414585
S1131C644B311814127F1027454545393C4A4949DC
S1131C743001710905033649494936064949291E83
S1131C8400363600000056360000081422410014C1
S1131C94141414140041221408020151090632498F
S1131CA459513E7C1211127C7F494949363E4141C7
S1131CB441227F4141221C7F494949417F09090945
S1131CC4013E4149497A7F0808087F00417F410069
S1131CD42040413F017F081422417F404040407F1F
S1131CE4020C027F7F0408107F3E4141413E7F097C
S1131CF40909063E4151215E7F091929464649498D
S1131D04493101017F01013F4040403F1F204020F1
S1131D141F3F4038403F63140814630708700807E2
S1091D2461514945430032
S9030000FC
