S014000061746D6567615F6C696768742E737265632A
S11300000C943F000C945C000C945C000C945C0019
S11300100C945C000C945C000C945C000C945C00EC
S11300200C945C000C945C000C945C000C945C00DC
S11300300C945C000C945C000C945C000C945C00CC
S11300400C945C000C945C000C94240B0C945C00E9
S11300500C945C000C945C000C945C000C945C00AC
S11300600C945C000C945C00FD061A070F07420711
S11300704507A509A509C508FF084E0898081124D5
S11300801FBECFEFD8E0DEBFCDBF14E0A0E0B1E0EB
S1130090E4E4F7E102C005900D92A03EB107D9F760
S11300A026E0A0EEB4E001C01D92A830B207E1F74B
S11300B00E94B2090C94A00B0C94000080E480937D
S11300C07C0087E880937A000895EAE7F0E0808175
S11300D08064808380917A0086FDFCCF80917800D3
S11300E090917900089581E284BD81E085BD8AB153
S11300F080628AB918BC08958093050588BD089567
S113010080E58CBD81E08DBD84B1886284B984B101
S11301108F7E84B984B1846084B984B1826084B9E7
S113012084B1816084B985B1846085B985B1816009
S113013085B908958EBD0DB407FEFDCF089595B120
S11301409B7F95B995B19D7F95B90E949A0085B121
S1130150846085B9089595B19B7F95B995B19260F6
S113016095B90E949A0085B1846085B90895CF92AB
S1130170DF92EF92FF920F931F93CF93DF93D82ECA
S1130180C92E162F072FF42EE52EC22FD32F8AE265
S11301900E949F008C2D0E94AB008D2D0E94AB000D
S11301A08E2D0E94AB008F2D0E94AB008BE20E942B
S11301B09F00802F0E94AB00812F0E94AB008D2FE7
S11301C00E94AB008C2F0E94AB008CE20E949F0027
S11301D0DF91CF911F910F91FF90EF90DF90CF901F
S11301E00895EF92FF920F931F93CF93DF93182FED
S11301F0092F21ED30E04FE351E060E070E080E052
S113020090E00E94B70085B18B7F85B985B182608B
S113021085B9E12CF12C82EDE816F10490F4C0E0EC
S1130220D0E0C03481E0D80740F4802F0E949A00C7
S1130230812F0E949A002196F4CF8FEFE81AF80AD2
S1130240EACF85B1846085B9DF91CF911F910F9179
S1130250FF90EF900895CF92DF92EF92FF920F9369
S11302601F93CF93DF937A0169019C01240F351FFB
S11302702134314028F020E431E07901E81AF90A08
S11302809B012C0D3D1D233D310528F022ED30E06E
S11302906901C61AD70A9601260F371F2150310962
S11302A0A701480F591F415051090E94B70085B159
S11302B08B7F85B985B1826085B9C0E0D0E0EC9CC4
S11302C0C001ED9C900DFC9C900D1124C817D9071A
S11302D040F4812F0E949A00802F0E949A00219658
S11302E0EECF85B1846085B9DF91CF911F910F91D5
S11302F0FF90EF90DF90CF9008956F927F928F924E
S11303009F92AF92BF92CF92DF92EF92FF920F93A0
S11303101F93CF93DF937C016B0149015801403255
S113032039F427E030E045E050E00E942B016BC037
S11303308FE9840F8A3108F4405288E1840F8430B5
S113034088F080E2840F843078F087E0840F843072
S113035068F084E1840F843058F08EE0840F843098
S113036048F009C045E407C041E405C045E503C0C1
S113037049E401C04FE40F2EF0EE6F2EF02D640E11
S11303808AE3861508F43FC08615E8F1D0E0D5303D
S1130390D0F5862D90E0FC01EE0FFF1FEE0FFF1F3E
S11303A0E80FF91FE854FC4FED0FF11D7080C0E019
S11303B0C73038F5872D90E00C2E02C095958795AF
S11303C00A94E2F780FF0EC0840121E030E041E0AE
S11303D050E0B6016C0F711DC7018D0F911D0E9475
S11303E02B010DC0850121E030E041E050E0B60171
S11303F06C0F711DC7018D0F911D0E942B01CF5FE2
S1130400D7CFDF5FC4CFDF91CF911F910F91FF90C2
S1130410EF90DF90CF90BF90AF909F908F907F90A0
S11304206F9008958F929F92AF92BF92CF92DF9276
S1130430EF92FF920F931F93CF93DF937C014B01B5
S1130440EA01590168014881442359F08601950164
S1130450B401C7010E947D0186E0E80EF11C2196DB
S1130460F2CFDF91CF911F910F91FF90EF90DF902A
S1130470CF90BF90AF909F908F9008950F931F934C
S1130480CF9368E571E085E391E00E94970B892B97
S113049009F450C06EE571E085E391E00E94970B8A
S11304A0892B09F447C0C0E0C23060F48FEF9FEF9E
S11304B00E94F10083EC99E00197F1F700C000007D
S11304C0CF5FF2CF0FEF1FEF2FEF3FEF42E651E088
S11304D066E970E088E290E00E9412022FEF3FEF9D
S11304E046E951E062EA70E088E290E00E9412027C
S11304F067E771E085E091E00E94970B892B59F042
S11305006BE771E085E091E00E94970B892B31F055
S113051049E451E005C045E451E002C04EE451E035
S11305200FEF1FEF2FEF3FEF62EA70E086E790E0F6
S11305300E941202CF911F910F9108958FEF809323
S1130540C5008093C40088E98093C10086E080934D
S1130550C20008950F931F93CF93DF93CDB7DEB7F7
S1130560C551D1400FB6F894DEBF0FBECDBF80E0B9
S113057090E00E94F10002E810E129EB30E046E34C
S113058051E064E170E085E090E00E942B0100E11D
S113059014E821E030E046E351E064E170E085E0F6
S11305A090E00E942B0121E030E046E351E06CEC46
S11305B070E085E090E00E942B0129EB30E041E0FF
S11305C050E064E170E085E090E00E942B0129EBAB
S11305D030E041E050E064E170E08AE391E00E94A1
S11305E02B0180911501882319F0A5E1B1E002C027
S11305F0A5E8B1E090E08C91882389F09F3178F4EC
S113060011962FE9280F2A3108F48052E1E0F0E036
S1130610EC0FFD1FE90FF11D80839F5FECCFE1E03C
S1130620F0E0EC0FFD1FE90FF11D108202E810E16C
S11306302FEF3FEFAE014F5F5F4F67E370E084E160
S113064090E00E94120200E114E821E030E048E169
S113065051E069E470E084E190E00E942B0167E7D7
S113066071E085E091E00E94970B892B59F06BE7CC
S113067071E085E091E00E94970B892B31F029E429
S113068031E005C025E431E002C02EE431E0AEE8FB
S1130690B1E080E09C91992361F08F3250F411967F
S11306A0E1E2F0E0EC0FFD1FE80FF11D90838F5F96
S11306B0F1CFF9019081992369F08F3258F42F5FBB
S11306C03F4FE1E2F0E0EC0FFD1FE80FF11D9083D6
S11306D08F5FEFCFE1E2F0E0EC0FFD1FE80FF11DBB
S11306E0108202E810E12FEF3FEFAE014F5D5F4F44
S11306F06CE470E084E190E00E941202A4EAB1E0AC
S113070080E09C91992361F08F3250F41196E1E5D9
S1130710F0E0EC0FFD1FE80FF11D90838F5FF1CF28
S11307209091EA04992319F0AAEEB4E002C0AEEA6B
S1130730B1E09C91992389F08F3278F411962FE9D6
S1130740290F2A3108F49052E1E5F0E0EC0FFD1F87
S1130750E80FF11D90838F5FECCFE1E5F0E0EC0F43
S1130760FD1FE80FF11D108202E810E12FEF3FEFAB
S1130770AE014F5A5F4F6CE570E084E190E00E9457
S11307801202A5EBB1E080E09C91992361F08F32D5
S113079050F41196E1E8F0E0EC0FFD1FE80FF11DB5
S11307A090838F5FF1CF2091FB0421110AC0E1E80F
S11307B0F0E0EC0FFD1FE80FF11D90E390838F5FD5
S11307C033C090E02223D9F09330C8F4E1E1F1E0A2
S11307D0EC0FFD1FE90FF11D3DEC239F312D11247A
S11307E0369536953695532F550F452F440F440FA4
S11307F0450F241B205D2083232F9F5FE3CF992384
S113080099F08F3288F49150E1E1F1E0EC0FFD1F93
S1130810E90FF11D2081E1E8F0E0EC0FFD1FE80F86
S1130820F11D20838F5FEBCF21E0280FE1E8F0E09A
S1130830EC0FFD1FE80FF11D9FE2908392E0980FEB
S1130840E1E8F0E0EC0FFD1FE20FF11D22E320834D
S11308508D5FE1E8F0E0EC0FFD1FE90FF11D90E37F
S11308609083E1E8F0E0EC0FFD1FE80FF11D10822A
S113087002E810E12FEF3FEFAE014F575F4F6CE6F8
S113088070E084E190E00E941202A9ECB1E080E003
S11308909C91992361F08F3250F41196E1EBF0E0D2
S11308A0EC0FFD1FE80FF11D90838F5FF1CF909146
S11308B0FA049923A1F091E0980FE1EBF0E0EC0F3A
S11308C0FD1FE80FF11D2FE420838E5FE1EBF0E0C4
S11308D0EC0FFD1FE90FF11D9EE490831CC091E015
S11308E0980FE1EBF0E0EC0FFD1FE80FF11D2FE492
S11308F0208322E0280FE1EBF0E0EC0FFD1FE90F6D
S1130900F11D96E490838D5FE1EBF0E0EC0FFD1FA9
S1130910E20FF11D9083E1EBF0E0EC0FFD1FE80F17
S1130920F11D108202E810E12FEF3FEFAE014F54AA
S11309305F4F6CE770E084E190E00E941202ACED3E
S1130940B1E040E08C91882361F04F3250F411966D
S1130950E1EEF0E0EC0FFD1FE40FF11D80834F5F2B
S1130960F1CFE0910305F0910405309751F4E1EEE5
S1130970F0E0EC0FFD1FE40FF11D80E380834F5F77
S11309804AC050E0309791F1543080F59F01ADECAE
S1130990BCEC0E947F0B96958795969587959695C6
S11309A087959C01220F331F880F991F880F991F69
S11309B0880F991F820F931F9F01281B390BC901B0
S11309C0A1E1B1E0AC0FBD1FA50FB11D805D8C93FB
S11309D09F01ADECBCEC0E947F0BFC01F695E79502
S11309E0F695E795F695E7955F5FCCCF552399F09B
S11309F04F3288F45150E1E1F1E0EC0FFD1FE50FB7
S1130A00F11D8081E1EEF0E0EC0FFD1FE40FF11D1C
S1130A1080834F5FEBCFE1EEF0E0EC0FFD1FE40FBE
S1130A20F11D108202E810E12FEF3FEFAE014F51AC
S1130A305F4F6CE870E084E190E00E941202CB5EAC
S1130A40DE4F0FB6F894DEBF0FBECDBFDF91CF915E
S1130A501F910F9108959091C00095FFFCCF809352
S1130A60C6000895CF93DF93EC018881882321F099
S1130A7021960E942B05F9CFDF91CF91089585B17E
S1130A808E7F85B987E893E10197F1F700C00000F4
S1130A9085B1816085B987E893E10197F1F700C0DA
S1130AA0000081E00E949F008BE792E90197F1F733
S1130AB000C0000081E10E949F008BE792E901974A
S1130AC0F1F700C000008AE30E949F0085E50E94C0
S1130AD0AB0083EC99E00197F1F700C0000086E3D6
S1130AE00E949F0080EA0E94AB0083EC99E001978A
S1130AF0F1F700C0000081E20E949F0083EC99E0BE
S1130B000197F1F700C0000089E20E949F0087EA84
S1130B1091E60197F1F700C0000080E090E00E94A8
S1130B20F10083ED90E30197F1F700C000000E940B
S1130B30AA0281E08093E8048AEE91E00E943205E3
S1130B4008951F93CF93DF93CDB7DEB761970FB6A8
S1130B50F894DEBF0FBECDBF182F81E1EFEFF1E0B7
S1130B60DE01119601900D928A95E1F7812F82950D
S1130B708F70E1E0F0E0EC0FFD1FE80FF11D8081C4
S1130B800E942B051F70E1E0F0E0EC0FFD1FE10F68
S1130B90F11D80810E942B0561960FB6F894DEBF8B
S1130BA00FBECDBFDF91CF911F9108951F93CF93B7
S1130BB0DF9300D000D000D0CDB7DEB7AC01892BD5
S1130BC021F480E30E942B0541C010E0411551053A
S1130BD081F1153070F59A01ADECBCEC0E947F0BED
S1130BE09695879596958795969587959C01220F5E
S1130BF0331F880F991F880F991F880F991F820F21
S1130C00931F9A01281B390BC901E1E0F0E0EC0FB6
S1130C10FD1FE10FF11D805D80839A010E947F0B0F
S1130C20AC015695479556954795569547951F5F40
S1130C30CDCF112359F01150E1E0F0E0EC0FFD1F8E
S1130C40E10FF11D80810E942B05F3CF26960FB68C
S1130C50F894DEBF0FBECDBFDF91CF911F910895F1
S1130C60EF92FF921F93CF93DF9300D000D000D078
S1130C70CDB7DEB7E0900305F09004058CE40E9444
S1130C802B0589E40E942B0587E40E942B0588E448
S1130C900E942B0584E50E942B058DE30E942B0501
S1130CA0E114F10421F480E30E942B0541C010E01B
S1130CB0E114F10481F1153070F59701ADECBCEC51
S1130CC00E947F0B9695879596958795969587951F
S1130CD09C01220F331F880F991F880F991F880FBB
S1130CE0991F820F931F9701281B390BC901E1E05B
S1130CF0F0E0EC0FFD1FE10FF11D805D8083970193
S1130D000E947F0B7C01F694E794F694E794F694A2
S1130D10E7941F5FCDCF112359F01150E1E0F0E0CB
S1130D20EC0FFD1FE10FF11D80810E942B05F3CF15
S1130D308AE00E942B0526960FB6F894DEBF0FBEFC
S1130D40CDBFDF91CF911F91FF90EF9008950F9346
S1130D501F93CF93DF938B01D42F0E942B05C0E008
S1130D60CD1740F4F801EC0FF11D80810E942B0592
S1130D70CF5FF6CF8AE00E942B05DF91CF911F91C0
S1130D800F910895EF92FF920F931F93CF93DF93E8
S1130D9000D0CDB7DEB780910705882309F4D9C206
S1130DA080910805809306058091E704882331F03B
S1130DB080910301833020F480E003C080E001C00F
S1130DC081E0882321F080E192E00E943205809145
S1130DD006050E94A1058CE993E00E943205E0918A
S1130DE006058E2F90E0FC013197EB30F10508F0F9
S1130DF0ACC2EC5CFF4F0C94790B8091030590918D
S1130E000405898380910305909104059A8342E047
S1130E10BE016F5F7F4F81E00E94A70696C280915A
S1130E200505898341E0BE016F5F7F4F83E00E9427
S1130E30A7068BC280910705823008F486C2109100
S1130E4009058091E704882331F080910301823001
S1130E5020F480E003C080E001C081E0882321F019
S1130E608CE292E00E943205812F90E00E94D60528
S1130E708CE993E00E943205812F0E947C000E943D
S1130E803E0263C20E943E0260C280910705823026
S1130E9008F45BC280910705823030F08091090527
S1130EA080930401E2E001C0E1E080910705E817C6
S1130EB060F501E00E0FF0E0E85FFA4F10811031A9
S1130EC060F4212F30E0200F311D8091070590E060
S1130ED02817390724F080E003C080E001C081E0D6
S1130EE0882391F0E12EF12C602F70E0685F7A4F37
S1130EF0A70185E391E00E948E0BF701EB5CFE4FA6
S1130F001082E02FE10F01C0E02F80910705E81760
S1130F1060F501E00E0FF0E0E85FFA4F1081103247
S1130F2060F4212F30E0200F311D8091070590E0FF
S1130F302817390724F080E003C080E001C081E075
S1130F40882391F0E12EF12C602F70E0685F7A4FD6
S1130F50A70185E191E00E948E0BF701EB5EFE4F45
S1130F601082E02FE10F01C0E02F80910705E81700
S1130F7060F501E00E0FF0E0E85FFA4F10811031E8
S1130F8060F4212F30E0200F311D8091070590E09F
S1130F902817390724F080E003C080E001C081E015
S1130FA0882391F0E12EF12C602F70E0685F7A4F76
S1130FB0A70185E091E00E948E0BF701EB5FFE4FE5
S1130FC01082E02FE10F01C0E02F80910705E817A0
S1130FD040F4AE2FB0E0A85FBA4F8C918093FB042D
S1130FE0EF5F80910705E81760F501E00E0FF0E070
S1130FF0E85FFA4F1081103160F4212F30E0200FA8
S1131000311D8091070590E02817390724F080E00E
S113101003C080E001C081E0882391F0E12EF12C2F
S1131020602F70E0685F7A4FA7018AEE94E00E9417
S11310308E0BF701E651FB4F1082E02FE10F01C048
S1131040E02F80910705E81740F4AE2FB0E0A85FC9
S1131050BA4F8C918093FA04EF5F80910705E817EB
S113106030F4F0E0E85FFA4F80818093E9046CE4A7
S113107072E085E191E00E94970B892B31F4809115
S1131080FB04882321F081E003C081E001C080E0FB
S1131090882309F45AC10E94AA0257C18091070506
S11310A0823008F452C1809109058093E70480914D
S11310B0E704882331F080910301823020F480E03A
S11310C003C080E001C081E0882321F086E592E03E
S11310D00E9432058091E7048823A9F08091E704F7
S11310E0882331F080910301823020F480E003C032
S11310F080E001C081E0882309F427C18CE893E0F3
S11311000E94320522C18091E704882331F0809146
S11311100301823020F480E003C080E001C081E05C
S1131120882309F412C184E692E00E9432050DC1BD
S113113080910705823008F408C1809109058093E5
S1131140030180910301843018F083E0809303014C
S11311508091E704882331F080910301823020F4E8
S113116080E003C080E001C081E0882321F08FE6A5
S113117092E00E9432058091030190E00E94D6051E
S11311808CE993E00E943205E0C08091070583302A
S113119008F4DBC0E8E0F5E02181828190E0982F3B
S11311A08827822B909302058093010510920005F5
S11311B01092FF041092FE041092FD0481E08093CB
S11311C0FC048091E704882331F08091030182308C
S11311D020F480E003C080E001C081E0882321F096
S11311E089E892E00E943205809101059091020500
S11311F00E94D6058CE993E00E943205A6C0809136
S1131200FC04882331F080910705843020F4F12C0C
S113121004C0F12C02C0FF24F394FF2009F495C00C
S1131220E8E0F5E02181828190E0982F8827822BE5
S113123003812FEF200F203460F42091070530E064
S113124024503109402F50E0241735071CF4F12CA9
S113125001C0F12CFF2009F478C09C0100243695CC
S113126027950794369527950794322F202DC90189
S11312709695879560E471E00E94650BFC01C901B5
S113128060E872E00E94650B802F8695AF01480FDD
S1131290511D413481E0580710F040E451E04150C1
S11312A051099B01CF010E94B70085B18B7F85B99D
S11312B085B1826085B910E0101748F4E12FF0E0A1
S11312C0E45FFA4F80810E949A001F5FF5CF85B1D9
S11312D0846085B98091FF0490910005800F911D71
S11312E0909300058093FF048091FD049091FE0487
S11312F001969093FE048093FD042091FF043091A5
S11313000005809101059091020528173907E8F03E
S11313101092FC048091E704882331F0809103014A
S1131320823018F4F12C01C0F12CFF2021F081EB64
S113133092E00E9432058091FF04909100050E9482
S1131340D60583ED92E00E943205109207051092B3
S113135006050F900F90DF91CF911F910F91FF9091
S1131360EF90089584B7877F84BF0FB6F894A8954B
S113137080916000886180936000109260000FBECD
S11313808FE493EC0197F1F700C000000E949E02E5
S113139087EA91E60197F1F700C000008CED92E036
S11313A00E94320584E093E00E94320588E193E0D4
S11313B00E9432050E945E0083E393E00E9432059E
S11313C00E94730085E493E00E9432050E9480002D
S11313D087E593E00E94320587EA91E60197F1F7E9
S11313E000C000000E943F0500E010E022ED30E064
S11313F040E451E060E070E080E090E00E942B0166
S11314008AEE91E00E94320585E0E9E6F3E0A5E387
S1131410B1E001900D928A95E1F78AE0ECE4F2E004
S1131420A5E1B1E001900D928A95E1F78AE0EBE73E
S1131430F1E0A5E0B1E001900D928A95E1F71092F8
S1131440FB041092FA041092E90480E880930401EA
S11314508EE693E00E943205789481E893E00E943E
S1131460320586E993E00E9432050E94C20680910B
S1131470E6048F5F8093E604853008F466C010921A
S1131480E6040E946500209103053091040582174B
S1131490930709F45AC0909304058093030580913F
S11314A0030590910405883C910560F58091FA0448
S11314B0811108C081E08093FA048FEF8093E904DE
S11314C0C1E001C0C0E080910305909104059C0136
S11314D03695322F222737952795281B390BA5E5FA
S11314E0B2E50E947F0B0024880F991F001C880F0F
S11314F0991F001C892F902D80950AF080E80E9486
S11315007C000EC08091FA04882331F01092FA0412
S11315101092E904C1E001C0C0E080E00E947C00B8
S1131520CC2341F0909102018091FA04981304C0F5
S113153080E003C080E001C081E0882331F0809125
S1131540FA04809302010E94AA028091E40490911B
S1131550E50401969093E5048093E4040A9768F106
S11315601092E5041092E4042091030530910405DF
S113157080910001909101018217930738F4209122
S1131580030530910405281B390B08C0209103057D
S113159030910405AC01421B530B9A0125303105EF
S11315A010F4019651F40E94AA02809103059091CF
S11315B0040590930101809300018091E2049091CD
S11315C0E30401969093E3048093E204C29730F01D
S11315D01092E3041092E2040E9430068091E00429
S11315E09091E10401969093E1048093E0048A3F92
S11315F0910518F11092E1041092E0048FE993E050
S11316000E94320580910305909104050E94D6053D
S11316108FEA93E00E9432058091030590910405BE
S1131620892F0E94A10580910305909104050E94D1
S1131630A10584EB93E00E94320587E893E10197CA
S1131640F1F700C0000011CF1F920F920FB60F9256
S113165011242F933F934F935F936F937F938F93B3
S11316609F93AF93BF93EF93FF938091C6008A300B
S113167011F08D3041F48091070581110E94C2065A
S11316801092070511C0909107059F3F59F0E09112
S1131690070591E09E0F90930705F0E0E85FFA4F8D
S11316A0808302C010920705FF91EF91BF91AF9123
S11316B09F918F917F916F915F914F913F912F9166
S11316C00F900FBE0F901F901895AA1BBB1B51E1E2
S11316D007C0AA1FBB1FA617B70710F0A61BB70B9E
S11316E0881F991F5A95A9F780959095BC01CD0143
S11316F00895EE0FFF1F0590F491E02D0994A29F29
S1131700B001B39FC001A39F700D811D1124911DD1
S1131710B29F700D811D1124911D0895FB01DC0100
S113172002C001900D9241505040D8F70895FB013A
S1131730DC018D91019080190110D9F3990B089562
S1071740F894FFCF47
S1131744FFFFFF02807573620000000000000000C8
S1131754000000000050726F66696C65203100005F
S11317640000000000000000000000000000000071
S113177400000000006461746100000000000000C7
S113178400000000005553420049444C4500424CBB
S11317945545544F4F544800696D61676500676946
S11317A4660057454C434F4D4520544F204D592016
S11317B44B45595041440075736200626C756574FD
S11317C46F6F74680050524F46494C2031004D4F9E
S11317D4444520444520434F4E4E454354494F4EBF
S11317E4203A2000544F55434845203A200041559F
S11317F443554E4500544F5543484520434F4E46A8
S11318044947555245203A2000524554524F2D45DC
S1131814434C414952414745203A20004C554D49D7
S11318244E4F53495445203A2000535437373839DE
S113183420696E697469616C697A65640D0A0030A3
S1131844313233343536373839414243444546001E
S11318545B554152545D20436F6D6D616E6420721B
S1131864656365697665643A203078005B55415256
S1131874545D2053657474696E67204C454420623A
S113188472696768746E6573733A200050726F6688
S1131894696C652031005B554152545D2044656296
S11318A47567200064697361626C65640D0A005B8A
S11318B4554152545D204C6F67206C6576656C20ED
S11318C473657420746F3A20005B554152545D2053
S11318D45374617274696E6720696D6167652072FF
S11318E46563657074696F6E2C2073697A653A2038
S11318F4005B554152545D20496D616765207265F2
S113190463657074696F6E20636F6D706C65746564
S11319142C20002062797465730D0A000D0A3D3D84
S11319243D2041546D65676133323850204C6967FA
S1131934687420436F6E74726F6C6C6572203D3DE5
S11319443D0D0A005541525420426175643A2031D8
S113195431353230300D0A00426F6F742073657173
S113196475656E636520737461727465642E2E2EBE
S11319740D0A0041444320696E697469616C697A93
S113198465640D0A0050574D20696E697469616C71
S1131994697A65640D0A0053504920696E69746953
S11319A4616C697A65640D0A00646174610055416F
S11319B4525420696E697469616C697A65640D0AAC
S11319C400496E746572727570747320656E616219
S11319D46C65640D0A005265616479210D0A005B2B
S11319E44C494748545D204C6576656C3A20002088
S11319F428307800290D0A00000000000000005F70
S1131A0400000007000700147F147F14242A7F2A8F
S1131A14122313086462364955225000050300005A
S1131A24001C2241000041221C0014083E08140832
S1131A34083E08080000A0600008080808080060C0
S1131A4460000020100804023E5149453E00427FD4
S1131A54400042615149462141454B311814127FDB
S1131A641027454545393C4A494930017109050364
S1131A743649494936064949291E003636000000CC
S1131A84563600000814224100141414141400419E
S1131A942214080201510906324959513E7C12119B
S1131AA4127C7F494949363E414141227F414122CA
S1131AB41C7F494949417F090909013E4149497A41
S1131AC47F0808087F00417F41002040413F017F97
S1131AD4081422417F404040407F020C027F7F046F
S1131AE408107F3E4141413E7F090909063E4151A8
S1131AF4215E7F09192946464949493101017F017B
S1131B04013F4040403F1F2040201F3F4038403F9A
S1131B1463140814630708700807615149454300B6
S9030000FC
