S014000061746D6567615F6C696768742E737265632A
S11300000C943F000C945C000C945C000C945C0019
S11300100C945C000C945C000C945C000C945C00EC
S11300200C945C000C945C000C945C000C945C00DC
S11300300C945C000C945C000C945C000C945C00CC
S11300400C945C000C945C000C9431060C945C00E1
S11300500C945C000C945C000C945C000C945C00AC
S11300600C945C000C945C002D044A043F045B0473
S11300705E042406240671059505370559051124E7
S11300801FBECFEFD8E0DEBFCDBF12E0A0E0B1E0ED
S1130090E0E4FDE002C005900D92A63CB107D9F75B
S11300A023E0A6ECB2E001C01D92A73DB207E1F740
S11300B00E94A2030C949E060C94000080E480939A
S11300C07C0087E880937A000895EAE7F0E0808175
S11300D08064808380917A0086FDFCCF80917800D3
S11300E090917900089581E284BD81E085BD8AB153
S11300F080628AB918BC08958093D40288BD08959B
S113010080E58CBD81E08DBD84B1886284B984B101
S11301108F7E84B984B1846084B984B1826084B9E7
S113012084B1816084B985B1846085B985B1816009
S113013085B908958EBD0DB407FEFDCF089595B120
S11301409B7F95B995B19D7F95B90E949A0085B121
S1130150846085B9089595B19B7F95B995B19260F6
S113016095B90E949A0085B1846085B90895CF92AB
S1130170DF92EF92FF920F931F93CF93DF93D82ECA
S1130180C92E162F072FF42EE52EC22FD32F8AE265
S11301900E949F008C2D0E94AB008D2D0E94AB000D
S11301A08E2D0E94AB008F2D0E94AB008BE20E942B
S11301B09F00802F0E94AB00812F0E94AB008D2FE7
S11301C00E94AB008C2F0E94AB008CE20E949F0027
S11301D0DF91CF911F910F91FF90EF90DF90CF901F
S11301E00895EF92FF920F931F93CF93DF93182FED
S11301F0092F29EA30E04FE351E060E070E080E04D
S113020090E00E94B70085B18B7F85B985B182608B
S113021085B9E12CF12C8AEAE816F10490F4C0E0E7
S1130220D0E0C03481E0D80740F4812F0E949A00C6
S1130230802F0E949A002196F4CF8FEFE81AF80AD3
S1130240EACF85B1846085B9DF91CF911F910F9179
S1130250FF90EF900895CF92DF92EF92FF920F9369
S11302601F93CF93DF937A0169019C01240F351FFB
S11302702134314028F020E431E07901E81AF90A08
S11302809B012C0D3D1D2B3A310528F02AEA30E064
S11302906901C61AD70A9601260F371F2150310962
S11302A0A701480F591F415051090E94B70085B159
S11302B08B7F85B985B1826085B9C0E0D0E0EC9CC4
S11302C0C001ED9C900DFC9C900D1124C817D9071A
S11302D040F4802F0E949A00812F0E949A00219658
S11302E0EECF85B1846085B9DF91CF911F910F91D5
S11302F0FF90EF90DF90CF9008956F927F928F924E
S11303009F92AF92BF92CF92DF92EF92FF920F93A0
S11303101F93CF93DF937C016B0149015801403255
S113032039F427E030E045E050E00E942B0148C05A
S11303300F2EF0EE6F2EF02D640E8AE3861508F46E
S11303403FC08615E8F1D0E0D530D0F5862D90E099
S1130350FC01EE0FFF1FEE0FFF1FE80FF91FE15620
S1130360FE4FED0FF11D7080C0E0C73038F5872DCA
S113037090E00C2E02C0959587950A94E2F780FFD1
S11303800EC0840121E030E041E050E0B6016C0F82
S1130390711DC7018D0F911D0E942B010DC0850198
S11303A021E030E041E050E0B6016C0F711DC7015F
S11303B08D0F911D0E942B01CF5FD7CFDF5FC4CF7C
S11303C0DF91CF911F910F91FF90EF90DF90CF902D
S11303D0BF90AF909F908F907F906F9008958F9271
S11303E09F92AF92BF92CF92DF92EF92FF920F93C0
S11303F01F93CF93DF937C014B01EA0159016801FC
S11304004881442359F086019501B401C7010E9433
S11304107D0186E0E80EF11C2196F2CFDF91CF91A9
S11304201F910F91FF90EF90DF90CF90BF90AF900E
S11304309F908F900895CF92DF92EF92FF920F9347
S11304401F9385B18E7F85B987E893E10197F1F712
S113045000C0000085B1816085B987E893E1019708
S1130460F1F700C0000081E00E949F008BE792E951
S11304700197F1F700C0000081E10E949F008BE723
S113048092E90197F1F700C000008AE30E949F00FF
S113049085E50E94AB0083EC99E00197F1F700C079
S11304A0000086E30E949F0080E60E94AB0083EC7C
S11304B099E00197F1F700C0000080E20E949F00DC
S11304C083EC99E00197F1F700C0000089E20E94F3
S11304D09F0087EA91E60197F1F700C0000029EA3E
S11304E030E04FE351E060E070E080E090E00E9493
S11304F0B70085B18B7F85B985B1826085B9C12C80
S1130500D12C760190E8C91694EDD906E104F104E2
S113051060F480E00E949A0080E00E949A002FEF2D
S1130520C21AD20AE20AF20AEDCF85B1846085B913
S11305308FE493EC0197F1F700C000000FEF1FEF79
S113054022E330E040E451E060E070E080E090E0DD
S11305500E942B019FE52AEE80E0915020408040CC
S1130560E1F700C0000029EA30E04FE351E060E029
S113057070E080E090E00E94B70085B18B7F85B980
S113058085B1826085B9C12CD12C760190E8C91659
S113059094EDD906E104F10460F480E00E949A002D
S11305A080E00E949A002FEFC21AD20AE20AF20AED
S11305B0EDCF85B1846085B98FE493EC0197F1F7B1
S11305C000C0000000E010E02FEF3FEF45E551E0F0
S11305D06AE070E084E190E00E94EF0183ED90E333
S11305E00197F1F700C000002FEF3FEF4AE651E01A
S11305F064E170E084E190E00E94EF0183ED90E318
S11306000197F1F700C0000068E771E082E091E033
S11306100E949506892B59F06CE771E082E091E025
S11306200E949506892B31F046E451E005C042E46E
S113063051E002C04BE451E000E010E02FEF3FEF47
S113064064E170E082E690E00E94EF018FE493ECB5
S11306500197F1F700C0000081E08093C7021F9169
S11306600F91FF90EF90DF90CF9008950F931F9319
S1130670CF9366E871E082E391E00E949506892BAE
S113068009F450C06CE871E082E391E00E949506A1
S1130690892B09F447C0C0E0C23060F480E090E0E8
S11306A00E94F10083EC99E00197F1F700C000008B
S11306B0CF5FF2CF00E010E02FEF3FEF45E551E0D0
S11306C06AE070E084E190E00E94EF012FEF3FEFD9
S11306D04AE651E064E170E084E190E00E94EF01B9
S11306E068E771E082E091E00E949506892B59F059
S11306F06CE771E082E091E00E949506892B31F06D
S113070046E451E005C042E451E002C04BE451E04C
S113071000E010E02FEF3FEF64E170E082E690E04C
S11307200E94EF01CF911F910F9108958FEF809355
S1130730C5008093C40088E98093C10086E080935B
S1130740C20008950E945E000E9473000E9480000F
S11307500E941B0285E0E0E9F1E0A2E3B1E0019030
S11307600D928A95E1F78AE0E5E9F1E0A2E1B1E0D2
S113077001900D928A95E1F7E2E0F1E085E793E7D5
S11307809183808382E690E0938382831092CA02ED
S11307901092C9021092C80280E8809301010E945D
S11307A0960378940E9465002091D2023091D3027E
S11307B08217930721F09093D3028093D20287EAA1
S11307C091E60197F1F700C00000ECCF9091C000D2
S11307D095FFFCCF8093C60008950F931F93CF938A
S11307E0DF938B01D42F0E94E603C0E0CD1740F4C1
S11307F0F801EC0FF11D80810E94E603CF5FF6CF74
S11308008AE00E94E603DF91CF911F910F91089532
S1130810EF92FF920F931F93CF93DF9300D0CDB746
S1130820DEB78091D602882309F412C28091D702E0
S11308308093D5028091C602811180910001E091DC
S1130840D5028E2F90E0FC013197EB30F10508F0D2
S1130850FBC1EC5CFF4F0C9486068091D202909110
S1130860D30289838091D2029091D3029A8342E089
S1130870BE016F5F7F4F81E00E94ED03E5C180916F
S1130880D402898341E0BE016F5F7F4F83E00E9401
S1130890ED03DAC18091D602823008F4D5C180918B
S11308A0D8029091C6029111909100010E947C009F
S11308B00E943603C9C10E943603C6C18091D60284
S11308C0823008F4C1C18091D602823030F0809128
S11308D0D80280930101E2E001C0E1E08091D602F8
S11308E0E81760F501E00E0FF0E0E952FD4F1081CA
S11308F0103160F4212F30E0200F311D8091D60299
S113090090E02817390724F080E003C080E001C09C
S113091081E0882391F0E12EF12C602F70E0695280
S11309207D4FA70182E391E00E948C06F701EE5C03
S1130930FE4F1082E02FE10F01C0E02F8091D6021C
S1130940E81760F501E00E0FF0E0E952FD4F108169
S1130950103260F4212F30E0200F311D8091D60237
S113096090E02817390724F080E003C080E001C03C
S113097081E0882391F0E12EF12C602F70E0695220
S11309807D4FA70182E191E00E948C06F701EE5EA3
S1130990FE4F1082E02FE10F01C0E02F8091D602BC
S11309A0E81760F501E00E0FF0E0E952FD4F108109
S11309B0103160F4212F30E0200F311D8091D602D8
S11309C090E02817390724F080E003C080E001C0DC
S11309D081E0882391F0E12EF12C602F70E06952C0
S11309E07D4FA70182E091E00E948C06F701EE5F43
S11309F0FE4F1082E02FE10F01C0E02F8091D6025C
S1130A00E81740F4AE2FB0E0A952BD4F8C9180930B
S1130A10CA02EF5F8091D602E81740F4AE2FB0E02F
S1130A20A952BD4F8C918093C902EF5F8091D60289
S1130A30E81730F4F0E0E952FD4F80818093C8025A
S1130A4065E971E082E191E00E949506892B31F419
S1130A508091CA02882321F081E003C081E001C0B3
S1130A6080E0882309F4F0C00E943603EDC0809131
S1130A70D602823008F4E8C08091D8028093C6027E
S1130A808091C6028111809100018091C602882361
S1130A9041F08091C602882309F4D6C080910001F8
S1130AA0D3C08091C602882309F4CEC0809100018E
S1130AB0CBC08091D602823008F4C6C08091D8029F
S1130AC08093000180910001843018F083E08093CA
S1130AD000018091C602882309F4B6C08091000108
S1130AE0B3C08091D602833008F4AEC0E7EDF2E0E3
S1130AF02181828190E0982F8827822B9093D102C4
S1130B008093D0021092CF021092CE021092CD02A6
S1130B101092CC0281E08093CB028091C60288239C
S1130B2009F492C0809100018FC08091CB02882388
S1130B3031F08091D602843020F420E003C020E01C
S1130B4001C021E0222309F47FC0E7EDF2E0318106
S1130B50828190E0982F8827832B03813FEF300F09
S1130B60303460F44091D60250E044505109602F73
S1130B7070E0461757071CF420E001C020E0222350
S1130B8009F462C09C010024369527950794369594
S1130B9027950794322F202DC9019695879560E4F7
S1130BA071E00E947206FC01C90160E872E00E94D3
S1130BB07206802F8695AF01480F511D413481E0A4
S1130BC0580710F040E451E0415051099B01CF0116
S1130BD00E94B70085B18B7F85B985B1826085B9E4
S1130BE010E0101748F4E12FF0E0E552FD4F80814A
S1130BF00E949A001F5FF5CF85B1846085B980910A
S1130C00CE029091CF02800F911D9093CF028093DA
S1130C10CE028091CC029091CD0201969093CD02A8
S1130C208093CC022091CE023091CF028091D002E9
S1130C309091D1022817390738F01092CB02809195
S1130C40C6028111809100011092D6021092D50241
S1130C500F900F90DF91CF911F910F91FF90EF9024
S1130C6008951F920F920FB60F9211242F933F9362
S1130C704F935F936F937F938F939F93AF93BF93A0
S1130C80EF93FF938091C6008A3011F08D3041F4C8
S1130C908091D60281110E9408041092D60211C0DC
S1130CA09091D6029F3F59F0E091D60291E09E0FB9
S1130CB09093D602F0E0E952FD4F808302C0109277
S1130CC0D602FF91EF91BF91AF919F918F917F9148
S1130CD06F915F914F913F912F910F900FBE0F90A5
S1130CE01F901895AA1BBB1B51E107C0AA1FBB1F6D
S1130CF0A617B70710F0A61BB70B881F991F5A95A4
S1130D00A9F780959095BC01CD010895EE0FFF1FC2
S1130D100590F491E02D0994FB01DC0102C00190DF
S1130D200D9241505040D8F70895FB01DC018D919C
S1130D30019080190110D9F3990B0895F894FFCF0D
S1130D4002807573620000000000000000000000D3
S1130D50000050726F66696C65203100000000006D
S1130D60000000000000000000000000000000007F
S1130D7000006461746100000000000000000000D5
S1130D8000005553420049444C4500424C554554DB
S1130D904F4F54480057454C434F4D4520544F2026
S1130DA04D59204B455950414400434F4E4E454305
S1130DB054494F4E203A200075736200626C756589
S1130DC0746F6F746800696D6167650067696600B8
S1130DD0646174610050726F66696C652031000053
S1130DE00000000000005F00000007000700147FFF
S1130DF0147F14242A7F2A12231308646236495567
S1130E0022500005030000001C2241000041221C66
S1130E100014083E081408083E08080000A06000FA
S1130E200808080808006060000020100804023E5A
S1130E305149453E00427F400042615149462141AB
S1130E40454B311814127F1027454545393C4A4912
S1130E50493001710905033649494936064949298A
S1130E601E003636000000563600000814224100E9
S1130E7014141414140041221408020151090632F6
S1130E804959513E7C1211127C7F494949363E41F1
S1130E904141227F4141221C7F494949417F09093F
S1130EA009013E4149497A7F0808087F00417F4192
S1130EB0002040413F017F081422417F40404040D0
S1130EC07F020C027F7F0408107F3E4141413E7F38
S1130ED0090909063E4151215E7F091929464649FF
S1130EE049493101017F01013F4040403F1F2040FB
S1130EF0201F3F4038403F631408146307087008FC
S1090F000761514945435D
S9030000FC
