S014000061746D6567615F6C696768742E737265632A
S11300000C943F000C945C000C945C000C945C0019
S11300100C945C000C945C000C945C000C945C00EC
S11300200C945C000C945C000C945C000C945C00DC
S11300300C945C000C945C000C945C000C945C00CC
S11300400C945C000C945C000C942A0C0C945C00E2
S11300500C945C000C945C000C945C000C945C00AC
S11300600C945C000C945C001A0837082C085F0898
S113007062080C0B0C0B2C0A660AB509FF09112443
S11300801FBECFEFD8E0DEBFCDBF14E0A0E0B1E0EB
S1130090E6E5F9E102C005900D92A63FB107D9F754
S11300A026E0A6EFB4E001C01D92A03AB207E1F742
S11300B00E941B0B0C94A90C0C940000DC0150E072
S11300C0E52FF0E0242F30E021503109E217F30747
S11300D08CF4109779F09C91992361F011968FE933
S11300E0890F8A3108F49052FB01E50FF11D9083CA
S11300F05F5FE6CFFB01E50FF11D1082089580E4F8
S113010080937C0087E880937A000895EAE7F0E022
S113011080818064808380917A0086FDFCCF809109
S1130120780090917900089581E284BD81E085BDD5
S11301308AB180628AB918BC089580939C0588BDF1
S1130140089580E58CBD81E08DBD84B1886284B959
S113015084B18F7E84B984B1846084B984B18260AF
S113016084B984B1816084B985B1846085B985B16D
S1130170816085B908958EBD0DB407FEFDCF089545
S113018095B19B7F95B995B19D7F95B90E94BB00B0
S113019085B1846085B9089595B19B7F95B995B172
S11301A0926095B90E94BB0085B1846085B90895B9
S11301B0CF92DF92EF92FF920F931F93CF93DF932F
S11301C0D82EC92E162F072FF42EE52EC22FD32F8B
S11301D08AE20E94C0008C2D0E94CC008D2D0E94CA
S11301E0CC008E2D0E94CC008F2D0E94CC008BE27F
S11301F00E94C000802F0E94CC00812F0E94CC005E
S11302008D2F0E94CC008C2F0E94CC008CE20E9487
S1130210C000DF91CF911F910F91FF90EF90DF907D
S1130220CF900895EF92FF920F931F93CF93DF9394
S1130230182F092F21ED30E04FE351E060E070E02A
S113024080E090E00E94D80085B18B7F85B985B1AC
S1130250826085B9E12CF12C82EDE816F10490F46A
S1130260C0E0D0E0C03481E0D80740F4802F0E9481
S1130270BB00812F0E94BB002196F4CF8FEFE81AB8
S1130280F80AEACF85B1846085B9DF91CF911F91D7
S11302900F91FF90EF900895CF92DF92EF92FF922B
S11302A00F931F93CF93DF937A0169019C01240F6D
S11302B0351F2134314028F020E431E07901E81A77
S11302C0F90A9B012C0D3D1D233D310528F022ED3B
S11302D030E06901C61AD70A9601260F371F21504C
S11302E03109A701480F591F415051090E94D800F4
S11302F085B18B7F85B985B1826085B9C0E0D0E0D6
S1130300EC9CC001ED9C900DFC9C900D1124C81731
S1130310D90740F4812F0E94BB00802F0E94BB00AC
S11303202196EECF85B1846085B9DF91CF911F917D
S11303300F91FF90EF90DF90CF9008956F927F928E
S11303408F929F92AF92BF92CF92DF92EF92FF92E1
S11303500F931F93CF93DF937C016B0149015801E5
S1130360403239F427E030E045E050E00E944C018F
S11303706BC08FE9840F8A3108F4405288E1840FFE
S1130380843088F080E2840F843078F087E0840F32
S1130390843068F084E1840F843058F08EE0840F58
S11303A0843048F009C045E407C041E405C045E590
S11303B003C049E401C04FE40F2EF0EE6F2EF02D80
S11303C0640E8AE3861508F43FC08615E8F1D0E090
S11303D0D530D0F5862D90E0FC01EE0FFF1FEE0F17
S11303E0FF1FE80FF91FE253FC4FED0FF11D708062
S11303F0C0E0C73038F5872D90E00C2E02C09595EB
S113040087950A94E2F780FF0EC0840121E030E072
S113041041E050E0B6016C0F711DC7018D0F911DB5
S11304200E944C010DC0850121E030E041E050E024
S1130430B6016C0F711DC7018D0F911D0E944C01F7
S1130440CF5FD7CFDF5FC4CFDF91CF911F910F91E3
S1130450FF90EF90DF90CF90BF90AF909F908F90E0
S11304607F906F9008958F929F92AF92BF92CF9298
S1130470DF92EF92FF920F931F93CF93DF937C0150
S11304804B01EA01590168014881442359F086016E
S11304909501B401C7010E949E0186E0E80EF11C9B
S11304A02196F2CFDF91CF911F910F91FF90EF90A2
S11304B0DF90CF90BF90AF909F908F9008950F934F
S11304C01F93CF936BE571E088E391E00E94910C58
S11304D0892B09F450C061E671E088E391E00E9441
S11304E0910C892B09F447C0C0E0C23060F48FEF4F
S11304F09FEF0E94120183EC99E00197F1F700C08D
S11305000000CF5FF2CF0FEF1FEF2FEF3FEF45E675
S113051051E066E970E088E290E00E9433022FEF38
S11305203FEF4AE951E062EA70E088E290E00E941D
S113053033026AE771E088E091E00E94910C892B14
S113054059F06EE771E088E091E00E94910C892BEC
S113055031F04CE451E005C048E451E002C041E50B
S113056051E00FEF1FEF2FEF3FEF62EA70E086E7F5
S113057090E00E943302CF911F910F9108958FEF65
S11305808093C5008093C40088E98093C10086E00D
S11305908093C20008950F931F9380E090E00E941F
S11305A0120102E810E12FEA30E046E351E06EE187
S11305B070E085E090E00E944C0100E114E821E045
S11305C030E046E351E06EE170E085E090E00E94A7
S11305D04C0121E030E046E351E06CEC70E085E052
S11305E090E00E944C012FEA30E041E050E06EE1DF
S11305F070E085E090E00E944C012FEA30E041E099
S113060050E06EE170E08AE391E00E944C0121E049
S113061030E048E151E066E470E084E190E00E945B
S11306204C011F910F910895FF920F931F93CF9345
S1130630DF93CDB7DEB7E5970FB6F894DEBF0FBEF4
S1130640CDBFF82E80915605811105C00E94CB02C2
S113065081E08093560580911801882319F008E100
S113066011E002C008E811E066E375E0C8010E94E9
S1130670910C892B39F14FE150E0B80186E395E004
S11306800E949A0C1092550540E3BE016F5F7F4FA4
S1130690C8010E945E0002E810E120E130E048E178
S11306A051E064E370E084E190E00E944C012FEF9C
S11306B03FEFAE014F5F5F4F64E370E084E190E091
S11306C00E9433026AE771E088E091E00E94910C95
S11306D0892B59F06EE771E088E091E00E94910C5B
S11306E0892B31F00CE411E005C008E411E002C0EC
S11306F001E511E066E275E088E091E00E94910C6A
S1130700892B09F44BC04FE050E068E071E086E2C9
S113071095E00E949A0C10923505A2E9B1E080E0C0
S11307209C91992361F08F3250F41196E1E0F0E04E
S1130730EC0FFD1FE80FF11D90838F5FF1CFF801DF
S11307409081992369F08F3258F40F5F1F4FE1E0D5
S1130750F0E0EC0FFD1FE80FF11D90838F5FEFCFEA
S1130760E1E0F0E0EC0FFD1FE80FF11D108202E85C
S113077010E120E130E048E151E069E470E084E117
S113078090E00E944C012FEF3FEFAE014F5F5F4FAF
S113079069E470E084E190E00E9433028091610595
S11307A081110BC06EE771E088E091E00E94910C2A
S11307B0892B31F40EEA11E005C001E615E002C010
S11307C008EA11E0F11008C066E075E0C8010E9473
S11307D0910C892B09F44FC04FE150E0B80186E039
S11307E095E00E949A0C10922505A8EBB1E080E0F8
S11307F09C91992361F08F3250F41196E1E0F0E07E
S1130800EC0FFD1FE80FF11D90838F5FF1CFF8010E
S11308109081992391F08F3280F40F5F1F4F2FE95D
S1130820290F2A3108F49052E1E0F0E0EC0FFD1FAB
S1130830E80FF11D90838F5FEACFE1E0F0E0EC0F69
S1130840FD1FE80FF11D108202E810E120E130E005
S113085048E151E069E570E084E190E00E944C01D8
S11308602FEF3FEFAE014F5F5F4F69E570E084E12A
S113087090E00E94330280918105882319F001E8F9
S113088015E002C004EC11E0F11008C066EF74E05A
S1130890C8010E94910C892B09F44FC04FE050E02D
S11308A0B80186EF94E00E949A0C10920505ABEC17
S11308B0B1E080E09C91992361F08F3250F411965D
S11308C0E1E0F0E0EC0FFD1FE80FF11D90838F5F76
S11308D0F1CFF8019081992391F08F3280F40F5F6A
S11308E01F4F2FE9290F2A3108F49052E1E0F0E07C
S11308F0EC0FFD1FE80FF11D90838F5FEACFE1E05D
S1130900F0E0EC0FFD1FE80FF11D108202E810E18A
S113091020E130E048E151E069E670E084E190E0F4
S11309200E944C012FEF3FEFAE014F5F5F4F69E62E
S113093070E084E190E00E9433022091920580915E
S11309400301281709F48EC020930301A5EDB1E03B
S113095080E09C91992361F08F3250F41196E1E08C
S1130960F0E0EC0FFD1FE80FF11D90838F5FF1CFD6
S113097021110AC0E1E0F0E0EC0FFD1FE80FF11DCA
S113098090E390838F5F33C090E02223D9F09330BB
S1130990C8F4E1E3F0E0EC0FFD1FE90FF11D3DECBD
S11309A0239F312D1124369536953695532F550FA7
S11309B0452F440F440F450F241B205D2083232F14
S11309C09F5FE3CF992399F08F3288F49150E1E34C
S11309D0F0E0EC0FFD1FE90FF11D2081E1E0F0E0F4
S11309E0EC0FFD1FE80FF11D20838F5FEBCF21E09B
S11309F0280FE1E0F0E0EC0FFD1FE80FF11D9FE28E
S1130A00908392E0980FE1E0F0E0EC0FFD1FE20F1D
S1130A10F11D22E320838D5FE1E0F0E0EC0FFD1F88
S1130A20E90FF11D90E39083E1E0F0E0EC0FFD1F8E
S1130A30E80FF11D108202E810E120E130E048E106
S1130A4051E069E770E084E190E00E944C012FEFEF
S1130A503FEFAE014F5F5F4F69E770E084E190E0E4
S1130A600E94330280919105882311F021E001C096
S1130A7020E080910201281709F464C02093020148
S1130A80A9EEB1E080E09C91992361F08F3250F49B
S1130A901196E1E0F0E0EC0FFD1FE80FF11D9083EB
S1130AA08F5FF1CF2223A1F091E0980FE1E0F0E015
S1130AB0EC0FFD1FE80FF11D2FE420838E5FE1E0B2
S1130AC0F0E0EC0FFD1FE90FF11D9EE490831CC0C4
S1130AD091E0980FE1E0F0E0EC0FFD1FE80FF11D4D
S1130AE02FE4208322E0280FE1E0F0E0EC0FFD1F6B
S1130AF0E90FF11D96E490838D5FE1E0F0E0EC0FE7
S1130B00FD1FE20FF11D9083E1E0F0E0EC0FFD1F0B
S1130B10E80FF11D108202E810E120E130E048E125
S1130B2051E069E870E084E190E00E944C012FEF0D
S1130B303FEFAE014F5F5F4F69E870E084E190E002
S1130B400E94330200919A0510919B058091000147
S1130B50909101010817190709F48AC01093010143
S1130B6000930001ACEFB1E040E08C91882361F088
S1130B704F3250F41196E1E0F0E0EC0FFD1FE40F6A
S1130B80F11D80834F5FF1CF0115110551F4E1E0B0
S1130B90F0E0EC0FFD1FE40FF11D80E380834F5F55
S1130BA049C050E00115110581F1543070F59801E8
S1130BB0ADECBCEC0E94790C96958795969587953B
S1130BC0969587959C01220F331F880F991F880FD4
S1130BD0991F880F991F820F931F9801281B390BA7
S1130BE0C901E1E3F0E0EC0FFD1FE50FF11D805DAD
S1130BF0808398010E94790C8C01169507951695AF
S1130C000795169507955F5FCDCF552399F04F3221
S1130C1088F45150E1E3F0E0EC0FFD1FE50FF11D06
S1130C208081E1E0F0E0EC0FFD1FE40FF11D808313
S1130C304F5FEBCFE1E0F0E0EC0FFD1FE40FF11D9F
S1130C40108202E810E120E130E048E151E069E976
S1130C5070E084E190E00E944C012FEF3FEFAE0181
S1130C604F5F5F4F69E970E084E190E00E943302D6
S1130C70E5960FB6F894DEBF0FBECDBFDF91CF91DE
S1130C801F910F91FF90089580E00E94140308952E
S1130C909091C00095FFFCCF8093C6000895CF9338
S1130CA0DF93EC018881882321F021960E94480675
S1130CB0F9CFDF91CF91089585B18E7F85B987E80B
S1130CC093E10197F1F700C0000085B1816085B917
S1130CD087E893E10197F1F700C0000081E00E94EA
S1130CE0C0008BE792E90197F1F700C0000081E1B1
S1130CF00E94C0008BE792E90197F1F700C0000061
S1130D008AE30E94C00085E50E94CC0083EC99E050
S1130D100197F1F700C0000086E30E94C00080EA5A
S1130D200E94CC0083EC99E00197F1F700C0000029
S1130D3081E20E94C00083EC99E00197F1F700C0C2
S1130D40000089E20E94C00087EA91E60197F1F76A
S1130D5000C0000080E090E00E94120183ED90E367
S1130D600197F1F700C000000E94440681E08093DF
S1130D705F058AE092E00E944F0608951F93CF9387
S1130D80DF93CDB7DEB761970FB6F894DEBF0FBE21
S1130D90CDBF182F81E1EFE1F2E0DE011196019061
S1130DA00D928A95E1F7812F82958F70E1E0F0E052
S1130DB0EC0FFD1FE80FF11D80810E9448061F7093
S1130DC0E1E0F0E0EC0FFD1FE10FF11D80810E94D6
S1130DD0480661960FB6F894DEBF0FBECDBFDF9113
S1130DE0CF911F9108951F93CF93DF9300D000D02C
S1130DF000D0CDB7DEB7AC01892B21F480E30E948B
S1130E00480641C010E04115510581F1153070F5D7
S1130E109A01ADECBCEC0E94790C96958795969559
S1130E208795969587959C01220F331F880F991FEC
S1130E30880F991F880F991F820F931F9A01281BEF
S1130E40390BC901E1E0F0E0EC0FFD1FE10FF11DEA
S1130E50805D80839A010E94790CAC015695479578
S1130E6056954795569547951F5FCDCF112359F059
S1130E701150E1E0F0E0EC0FFD1FE10FF11D808166
S1130E800E944806F3CF26960FB6F894DEBF0FBE35
S1130E90CDBFDF91CF911F910895EF92FF921F93E1
S1130EA0CF93DF9300D000D000D0CDB7DEB7E09071
S1130EB09A05F0909B058CE40E94480689E40E9400
S1130EC0480687E40E94480688E40E94480684E5B0
S1130ED00E9448068DE30E944806E114F10421F4BF
S1130EE080E30E94480641C010E0E114F10481F15E
S1130EF0153070F59701ADECBCEC0E94790C969519
S1130F00879596958795969587959C01220F331F13
S1130F10880F991F880F991F880F991F820F931F9D
S1130F209701281B390BC901E1E0F0E0EC0FFD1F2C
S1130F30E10FF11D805D808397010E94790C7C0193
S1130F40F694E794F694E794F694E7941F5FCDCF74
S1130F50112359F01150E1E0F0E0EC0FFD1FE10F17
S1130F60F11D80810E944806F3CF8AE00E94480662
S1130F7026960FB6F894DEBF0FBECDBFDF91CF919A
S1130F801F91FF90EF9008950F931F93CF93DF93DA
S1130F908B01D42F0E944806C0E0CD1740F4F8011D
S1130FA0EC0FF11D80810E944806CF5FF6CF8AE0E6
S1130FB00E944806DF91CF911F910F910895EF92FF
S1130FC0FF920F931F93CF93DF9300D0CDB7DEB77B
S1130FD080919F05882309F425C38091A0058093FF
S1130FE09D0580915E05882331F080910601833050
S1130FF020F480E003C080E001C081E0882321F078
S113100080E392E00E944F0680919D050E94BE06F7
S113101082EB93E00E944F06E0919D058E2F90E0B5
S1131020FC013197EB30F10508F0F6C2EC5CFF4FA0
S11310300C94730C80919A0590919B0589838091FF
S11310409A0590919B059A8342E0BE016F5F7F4FA2
S113105081E00E94C407E0C280919C05898341E03D
S1131060BE016F5F7F4F83E00E94C407D5C28091A9
S11310709F05823008F4D0C21091A10580915E05CD
S1131080882331F080910601823020F480E003C08F
S113109080E001C081E0882321F08CE492E00E948A
S11310A04F06812F90E00E94F30682EB93E00E94AA
S11310B04F06812F0E949D000E945F02ADC20E94D4
S11310C05F02AAC280919F05823008F4A5C2809174
S11310D09F05823030F08091A10580930701E2E002
S11310E001C0E1E080919F05E81760F501E00E0F73
S11310F0F0E0E056FA4F1081103160F4212F30E017
S1131100200F311D80919F0590E08217930724F4EE
S113111080E003C080E001C081E0882391F0E12EEB
S1131120F12C602F70E060567A4FA70188E391E0BC
S11311300E94880CF701E85CFE4F1082E02FE10F5B
S113114001C0E02F80919F05E81760F501E00E0FC4
S1131150F0E0E056FA4F1081103260F4212F30E0B5
S1131160200F311D80919F0590E08217930724F48E
S113117080E003C080E001C081E0882391F0E12E8B
S1131180F12C602F70E060567A4FA70188E191E05E
S11311900E94880CF701E85EFE4F1082E02FE10FF9
S11311A001C0E02F80919F05E81760F501E00E0F64
S11311B0F0E0E056FA4F1081103160F4212F30E056
S11311C0200F311D80919F0590E08217930724F42E
S11311D080E003C080E001C081E0882391F0E12E2B
S11311E0F12C602F70E060567A4FA70188E091E0FF
S11311F00E94880CF701E85FFE4F1082E02FE10F98
S113120001C0E02F80919F05E81740F4AE2FB0E0B5
S1131210A056BA4F8C9180939205EF5F80919F0501
S1131220E817B0F501E00E0FF0E0E056FA4F108138
S1131230103158F5112361F0212F30E0200F311DBA
S113124080919F0590E08217930724F480E003C007
S113125080E001C081E0882391F0E12EF12C602F21
S113126070E060567A4FA70181E895E00E94880CEF
S1131270F701EF57FA4F1082E02FE10F09C0111167
S113128006C010928105E02F03C0E02F01C0E02FBB
S113129080919F05E81740F4AE2FB0E0A056BA4FF6
S11312A08C9180939105EF5F80919F05E81740F43E
S11312B0AE2FB0E0A056BA4F8C9180936005EF5FDB
S11312C080919F05E817E0F481E08E0FF0E0E0568E
S11312D0FA4FE081EE2361F04E2F50E0480F511D8C
S11312E020919F0530E02417350724F490E003C0D3
S11312F090E001C091E0992311F0E80F01C0E82FBC
S113130080919F05E81768F561E06E0FF0E0E05604
S1131310FA4F00818FEF800F8F3160F4202F30E07F
S1131320260F311D80919F0590E08217930724F4C6
S113133080E003C080E001C081E0882371F010E008
S113134070E060567A4FA80181E695E00E94880C0F
S1131350F801EF59FA4F108204C0011102C0109233
S1131360610581E00E94140357C180919F0582307A
S113137008F452C18091A10580935E0580915E05B9
S1131380882331F080910601823020F480E003C08C
S113139080E001C081E0882321F08CE692E00E9485
S11313A04F0680915E058823A9F080915E0588230D
S11313B031F080910601823020F480E003C080E0A7
S11313C001C081E0882309F427C182EA93E00E94E6
S11313D04F0622C180915E05882331F08091060179
S11313E0823020F480E003C080E001C081E08823E3
S11313F009F412C18AE792E00E944F060DC1809160
S11314009F05823008F408C18091A10580930601EC
S113141080910601843018F083E080930601809166
S11314205E05882331F080910601823020F480E04B
S113143003C080E001C081E0882321F085E892E0C8
S11314400E944F068091060190E00E94F30682EB11
S113145093E00E944F06E0C080919F05833008F41A
S1131460DBC0E0EAF5E02181828190E0982F8827B3
S1131470822B90939905809398051092970510926A
S11314809605109295051092940581E0809393053A
S113149080915E05882331F080910601823020F42A
S11314A080E003C080E001C081E0882321F08FE95F
S11314B092E00E944F0680919805909199050E94B0
S11314C0F30682EB93E00E944F06A6C08091930539
S11314D0882331F080919F05843020F4F12C04C0DE
S11314E0F12C02C0FF24F394FF2009F495C0E0EA34
S11314F0F5E02181828190E0982F8827822B038157
S11315002FEF200F203460F420919F0530E0245009
S11315103109402F50E0241735071CF4F12C01C089
S1131520F12CFF2009F478C09C01002436952795FE
S11315300794369527950794322F202DC901969547
S1131540879560E471E00E945F0CFC01C90160E8CA
S113155072E00E945F0C802F8695AF01480F511DE9
S1131560413481E0580710F040E451E04150510902
S11315709B01CF010E94D80085B18B7F85B985B1CD
S1131580826085B910E0101748F4E12FF0E0EC55C3
S1131590FA4F80810E94BB001F5FF5CF85B1846044
S11315A085B98091960590919705800F911D909330
S11315B097058093960580919405909195050196E1
S11315C09093950580939405209196053091970505
S11315D0809198059091990528173907E8F01092A1
S11315E0930580915E05882331F080910601823055
S11315F018F4F12C01C0F12CFF2021F087EC92E0CB
S11316000E944F0680919605909197050E94F306DB
S113161089EE92E00E944F0610929F0510929D055C
S113162010929E050F900F90DF91CF911F910F9113
S1131630FF90EF90089584B7877F84BF0FB6F89426
S1131640A89580916000886180936000109260008A
S11316500FBE8FE493EC0197F1F700C000000E94E5
S1131660BF0287EA91E60197F1F700C0000082EF1C
S113167092E00E944F068AE193E00E944F068EE2B8
S113168093E00E944F060E947F0089E493E00E9449
S11316904F060E9494008BE593E00E944F068FEF63
S11316A00E949D000E94A1008DE693E00E944F06D7
S11316B087EA91E60197F1F700C000000E945C06FA
S11316C08AE092E00E944F0685E0EFE7F3E0A8E3AA
S11316D0B1E001900D928A95E1F78AE0E8E8F1E043
S11316E0A8E1B1E001900D928A95E1F78AE0EEE776
S11316F0F1E0A8E0B1E001900D928A95E1F7109233
S1131700920581E0809391058FEF8093600580E8D6
S11317108093070184E893E00E944F06789487E958
S113172093E00E944F068CEA93E00E944F0680915A
S11317309E0581110E94DF0780915D058F5F809374
S11317405D05853040F010925D050E9486009093FF
S11317509B0580939A0580915B0590915C050196A9
S113176090935C0580935B050A9768F110925C0581
S113177010925B0520919A0530919B05809104019C
S1131780909105018217930738F420919A053091BE
S11317909B05281B390B08C020919A0530919B05A5
S11317A0AC01421B530B9A012530310510F401960C
S11317B051F40E94440680919A0590919B05909360
S11317C00501809304018091590590915A05019671
S11317D090935A0580935905C29730F010925A0598
S11317E0109259050E944D07809157059091580514
S11317F0019690935805809357058A3F910518F1F7
S1131800109258051092570585EB93E00E944F06FD
S113181080919A0590919B050E94F30685EC93E0D4
S11318200E944F0680919A0590919B05892F0E94F2
S1131830BE0680919A0590919B050E94BE068AEC93
S113184093E00E944F0687E893E10197F1F700C007
S113185000006DCF1F920F920FB60F9211248F9339
S11318609F93EF93FF938091C6008A3011F08D30DF
S113187041F480919F058823C9F081E080939E05FF
S113188015C090919E05911111C090919F059F3FA5
S113189059F0E0919F0591E09E0F90939F05F0E031
S11318A0E056FA4F808302C010929F05FF91EF919A
S11318B09F918F910F900FBE0F901F901895AA1BA8
S11318C0BB1B51E107C0AA1FBB1FA617B70710F027
S11318D0A61BB70B881F991F5A95A9F78095909559
S11318E0BC01CD010895EE0FFF1F0590F491E02D8A
S11318F00994A29FB001B39FC001A39F700D811DE5
S11319001124911DB29F700D811D1124911D089504
S1131910FB01DC0102C001900D9241505040D8F708
S11319200895FB01DC018D91019080190110D9F318
S1131930990B0895FB01DC014150504048F001909F
S11319400D920020C9F701C01D9241505040E0F7AC
S10919500895F894FFCF96
S1131956FFFFFFFFFFFF02807573620000000000B7
S1131966000000000000000050726F66696C65207C
S1131976310000000000000000000000000000002C
S113198600000000000000006461746100000000B3
S113199600000000000000005553420049444C4535
S11319A600424C5545544F4F544800696D61676574
S11319B6006769660057454C434F4D4520544F20F8
S11319C64D59204B45595041440075736200626C71
S11319D67565746F6F74680050726F66696C652004
S11319E631004D4F444520444520434F4E4E454318
S11319F654494F4E203A2000576972656400426C80
S1131A067565746F6F746800415050415245494C76
S1131A16203A2000415543554E4500544F554348FE
S1131A2645203A2000544F5543484520434F4E46DF
S1131A364947555245203A2000524554524F2D45A8
S1131A46434C414952414745203A20004C554D49A3
S1131A564E4F53495445203A2000535437373839AA
S1131A6620696E697469616C697A65640D0A00306F
S1131A7631323334353637383941424344454600EA
S1131A865B554152545D20436F6D6D616E642072E7
S1131A96656365697665643A203078005B55415222
S1131AA6545D2053657474696E67204C4544206206
S1131AB672696768746E6573733A20005B554152A8
S1131AC6545D204465627567200064697361626CC5
S1131AD665640D0A005B554152545D204C6F6720C6
S1131AE66C6576656C2073657420746F3A20005BB0
S1131AF6554152545D205374617274696E6720694E
S1131B066D61676520726563657074696F6E2C20FC
S1131B1673697A653A20005B554152545D20496DDC
S1131B2661676520726563657074696F6E20636FA3
S1131B366D706C6574652C20002062797465730D74
S1131B460A000D0A3D3D3D2041546D6567613332FF
S1131B563850204C6967687420436F6E74726F6CDA
S1131B666C6572203D3D3D0D0A005541525420429C
S1131B766175643A203131353230300D0A00426FD6
S1131B866F742073657175656E6365207374617215
S1131B967465642E2E2E0D0A0041444320696E6935
S1131BA67469616C697A65640D0A0050574D206941
S1131BB66E697469616C697A65640D0A00535049EB
S1131BC620696E697469616C697A65640D0A0064DA
S1131BD6617461005541525420696E697469616C7F
S1131BE6697A65640D0A00496E746572727570745B
S1131BF67320656E61626C65640D0A0052656164EA
S1131C0679210D0A005B4C494748545D204C6576A2
S1131C16656C3A20002028307800290D0A0000005F
S1131C2600000000005F00000007000700147F1496
S1131C367F14242A7F2A1223130864623649552204
S1131C46500005030000001C2241000041221C0034
S1131C5614083E081408083E08080000A06000089E
S1131C6608080808006060000020100804023E51BD
S1131C7649453E00427F4000426151494621414563
S1131C864B311814127F1027454545393C4A4949BA
S1131C963001710905033649494936064949291E61
S1131CA6003636000000563600000814224100149F
S1131CB6141414140041221408020151090632496D
S1131CC659513E7C1211127C7F494949363E4141A5
S1131CD641227F4141221C7F494949417F09090923
S1131CE6013E4149497A7F0808087F00417F410047
S1131CF62040413F017F081422417F404040407FFD
S1131D06020C027F7F0408107F3E4141413E7F0959
S1131D160909063E4151215E7F091929464649496A
S1131D26493101017F01013F4040403F1F204020CF
S1131D361F3F4038403F63140814630708700807C0
S1091D4661514945430010
S9030000FC
