S014000061746D6567615F6C696768742E737265632A
S11300000C9440000C945D000C945D000C945D0015
S11300100C945D000C945D000C945D000C945D00E8
S11300200C945D000C945D000C945D000C945D00D8
S11300300C945D000C945D000C945D000C945D00C8
S11300400C945D000C945D000C94930C0C945D0076
S11300500C945D000C945D000C945D000C945D00A8
S11300600C945D000C945D001E083B083008630886
S113007066086A0B6A0B8A0AC40A130A5D0AB9097C
S113008011241FBECFEFD8E0DEBFCDBF15E0A0E046
S1130090B1E0E8E2FAE102C005900D92AC37B10795
S11300A0D9F727E0ACE7B5E001C01D92A532B2074D
S11300B0E1F70E94790B0C94120D0C940000DC0102
S11300C050E0E52FF0E0242F30E021503109E21711
S11300D0F3078CF4109779F09C91992361F01196B1
S11300E08FE9890F8A3108F49052FB01E50FF11D65
S11300F090835F5FE6CFFB01E50FF11D1082089549
S113010080E480937C0087E880937A000895EAE78E
S1130110F0E080818064808380917A0086FDFCCF4A
S11301208091780090917900089581E284BD81E006
S113013085BD8AB180628AB918BC0895809321066E
S113014088BD089584B1846084B985B1846085B91B
S113015084B1826084B984B1816084B985B18160DD
S113016085B984B1886284B984B18F7E84B980E50D
S11301708CBD81E08DBD08958EBD0DB407FEFDCF0D
S1130180089595B19B7F95B995B19D7F95B90E94CE
S1130190BC0085B1846085B9089595B19B7F95B9FC
S11301A095B1926095B90E94BC0085B1846085B90F
S11301B00895CF92DF92EF92FF920F931F93CF9304
S11301C0DF93D82EC92EF42EE52E8B010D5D1F4F23
S11301D0E901A3968AE20E94C10085B18B7F85B9AB
S11301E085B1826085B98C2D0E94BC008D2D0E9442
S11301F0BC008E2D0E94BC008F2D0E94BC0085B1D6
S1130200846085B98BE20E94C10085B18B7F85B97A
S113021085B1826085B9812F0E94BC00802F0E9425
S1130220BC008D2F0E94BC008C2F0E94BC0085B1A5
S1130230846085B98CE20E94C100DF91CF911F9147
S11302400F91FF90EF90DF90CF900895EF92FF927F
S11302500F931F93CF93DF93182F092F29EA30E0D0
S11302604FE351E060E070E080E090E00E94D9004C
S113027085B18B7F85B985B1826085B9E12CF12C7C
S11302808AEAE816F10490F4C0E0D0E0C03481E0DA
S1130290D80740F4802F0E94BC00812F0E94BC002C
S11302A02196F4CF8FEFE81AF80AEACF85B184607B
S11302B085B9DF91CF911F910F91FF90EF90089531
S11302C0CF92DF92EF92FF920F931F93CF93DF931E
S11302D07A0169019C01240F351F2134314028F033
S11302E020E431E07901E81AF90A9B012C0D3D1D47
S11302F02B3A310528F02AEA30E06901C61AD70AF8
S11303009601260F371F21503109A701480F591FA5
S1130310415051090E94D90085B18B7F85B985B1BF
S1130320826085B9C0E0D0E0EC9CC001ED9C900DEA
S1130330FC9C900D1124C817D90740F4812F0E940A
S1130340BC00802F0E94BC002196EECF85B1846052
S113035085B9DF91CF911F910F91FF90EF90DF90BE
S1130360CF9008956F927F928F929F92AF92BF9297
S1130370CF92DF92EF92FF920F931F93CF93DF936D
S11303807C016B0149015801403239F427E030E027
S113039045E050E00E9460016BC08FE9840F8A3110
S11303A008F4405288E1840F843088F080E2840F9E
S11303B0843078F087E0840F843068F084E1840F1F
S11303C0843058F08EE0840F843048F009C045E44E
S11303D007C041E405C045E503C049E401C04FE45A
S11303E00F2EF0EE6F2EF02D640E8AE3861508F4BE
S11303F03FC08615E8F1D0E0D530D0F5862D90E0E9
S1130400FC01EE0FFF1FEE0FFF1FE80FF91FEB5A61
S1130410FB4FED0FF11D7080C0E0C73038F5872D1C
S113042090E00C2E02C0959587950A94E2F780FF20
S11304300EC0840121E030E041E050E0B6016C0FD1
S1130440711DC7018D0F911D0E9460010DC08501B2
S113045021E030E041E050E0B6016C0F711DC701AE
S11304608D0F911D0E946001CF5FD7CFDF5FC4CF96
S1130470DF91CF911F910F91FF90EF90DF90CF907C
S1130480BF90AF909F908F907F906F9008958F92C0
S11304909F92AF92BF92CF92DF92EF92FF920F930F
S11304A01F93CF93DF937C014B01EA01590168014B
S11304B04881442359F086019501B401C7010E9483
S11304C0B20186E0E80EF11C2196F2CFDF91CF91C4
S11304D01F910F91FF90EF90DF90CF90BF90AF905E
S11304E09F908F9008950F931F93CF936BE571E0C6
S11304F088E391E00E94FA0C892B09F450C061E66C
S113050071E088E391E00E94FA0C892B09F447C05A
S1130510C0E0C23060F480E090E00E94260183ECE9
S113052099E00197F1F700C00000CF5FF2CF00E03F
S113053010E02FEF3FEF45E651E066E970E088E216
S113054090E00E9447022FEF3FEF4AE951E062EA50
S113055070E088E290E00E9447026AE771E088E078
S113056091E00E94FA0C892B59F06EE771E088E063
S113057091E00E94FA0C892B31F04CE451E005C063
S113058048E451E002C041E551E000E010E02FEF03
S11305903FEF62EA70E086E790E00E944702CF9165
S11305A01F910F9108951092C50083E38093C400B6
S11305B088E98093C10086E08093C200089580E0BA
S11305C090E00E9426010895FF920F931F93CF930A
S11305D0DF93CDB7DEB7E5970FB6F894DEBF0FBE55
S11305E0CDBFF82E8091DC05811105C00E94DF0289
S11305F081E08093DC0580911801882319F008E1DB
S113060011E002C008E811E06CEB75E0C8010E943B
S1130610FA0C892B39F14FE150E0B8018CEB95E0ED
S11306200E94030D1092DB0540E3BE016F5F7F4F14
S1130630C8010E945F0000E010E020E130E048E1E2
S113064051E064E370E084E190E00E9460012FEFE8
S11306503FEFAE014F5F5F4F64E370E084E190E0F1
S11306600E9447026AE771E088E091E00E94FA0C78
S1130670892B59F06EE771E088E091E00E94FA0C52
S1130680892B31F00CE411E005C008E411E002C04C
S113069001E511E06CEA75E088E091E00E94FA0C53
S11306A0892B09F44BC04FE050E068E071E08CEA1C
S11306B095E00E94030D1092BB05A2E9B1E080E031
S11306C09C91992361F08F3250F41196E1E0F0E0AF
S11306D0EC0FFD1FE80FF11D90838F5FF1CFF80140
S11306E09081992369F08F3258F40F5F1F4FE1E036
S11306F0F0E0EC0FFD1FE80FF11D90838F5FEFCF4B
S1130700E1E0F0E0EC0FFD1FE80FF11D108200E0C6
S113071010E020E130E048E151E069E470E084E178
S113072090E00E9460012FEF3FEFAE014F5F5F4FFB
S113073069E470E084E190E00E9447028091E5055D
S113074081110BC06EE771E088E091E00E94FA0C21
S1130750892B31F40EEA11E005C005EE15E002C064
S113076008EA11E0F11008C06CE875E0C8010E94C5
S1130770FA0C892B09F44FC04FE150E0B8018CE822
S113078095E00E94030D1092AB05A8EBB1E080E068
S11307909C91992361F08F3250F41196E1E0F0E0DE
S11307A0EC0FFD1FE80FF11D90838F5FF1CFF8016F
S11307B09081992391F08F3280F40F5F1F4F2FE9BE
S11307C0290F2A3108F49052E1E0F0E0EC0FFD1F0C
S11307D0E80FF11D90838F5FEACFE1E0F0E0EC0FCA
S11307E0FD1FE80FF11D108200E010E020E130E071
S11307F048E151E069E570E084E190E00E94600125
S11308002FEF3FEFAE014F5F5F4F69E570E084E18A
S113081090E00E94470280910506882319F005E0C4
S113082016E002C004EC11E0F11008C06CE775E0BA
S1130830C8010E94FA0C892B09F44FC04FE050E024
S1130840B8018CE795E00E94030D10928B05ABEC88
S1130850B1E080E09C91992361F08F3250F41196BD
S1130860E1E0F0E0EC0FFD1FE80FF11D90838F5FD6
S1130870F1CFF8019081992391F08F3280F40F5FCA
S11308801F4F2FE9290F2A3108F49052E1E0F0E0DC
S1130890EC0FFD1FE80FF11D90838F5FEACFE1E0BD
S11308A0F0E0EC0FFD1FE80FF11D108200E010E0F6
S11308B020E130E048E151E069E670E084E190E055
S11308C00E9460012FEF3FEFAE014F5F5F4F69E67B
S11308D070E084E190E00E94470220911606809126
S11308E00301281709F48EC020930301A5EDB1E09C
S11308F080E09C91992361F08F3250F41196E1E0ED
S1130900F0E0EC0FFD1FE80FF11D90838F5FF1CF36
S113091021110AC0E1E0F0E0EC0FFD1FE80FF11D2A
S113092090E390838F5F33C090E02223D9F093301B
S1130930C8F4E1E3F0E0EC0FFD1FE90FF11D3DEC1D
S1130940239F312D1124369536953695532F550F07
S1130950452F440F440F450F241B205D2083232F74
S11309609F5FE3CF992399F08F3288F49150E1E3AC
S1130970F0E0EC0FFD1FE90FF11D2081E1E0F0E054
S1130980EC0FFD1FE80FF11D20838F5FEBCF21E0FB
S1130990280FE1E0F0E0EC0FFD1FE80FF11D9FE2EE
S11309A0908392E0980FE1E0F0E0EC0FFD1FE20F7E
S11309B0F11D21E320838D5FE1E0F0E0EC0FFD1FEA
S11309C0E90FF11D97E39083E1E0F0E0EC0FFD1FE8
S11309D0E80FF11D108200E010E020E130E048E172
S11309E051E069E770E084E190E00E9460012FEF3C
S11309F03FEFAE014F5F5F4F69E770E084E190E045
S1130A000E94470280911506882311F021E001C05D
S1130A1020E080910201281709F464C020930201A8
S1130A20A9EEB1E080E09C91992361F08F3250F4FB
S1130A301196E1E0F0E0EC0FFD1FE80FF11D90834B
S1130A408F5FF1CF2223A1F091E0980FE1E0F0E075
S1130A50EC0FFD1FE80FF11D2FE420838E5FE1E012
S1130A60F0E0EC0FFD1FE90FF11D9EE490831CC024
S1130A7091E0980FE1E0F0E0EC0FFD1FE80FF11DAD
S1130A802FE4208322E0280FE1E0F0E0EC0FFD1FCB
S1130A90E90FF11D96E490838D5FE1E0F0E0EC0F47
S1130AA0FD1FE20FF11D9083E1E0F0E0EC0FFD1F6C
S1130AB0E80FF11D108200E010E020E130E048E191
S1130AC051E069E870E084E190E00E9460012FEF5A
S1130AD03FEFAE014F5F5F4F69E870E084E190E063
S1130AE00E94470200911F06109120068091000188
S1130AF0909101010817190709F48AC010930101A4
S1130B0000930001ACEFB1E040E08C91882361F0E8
S1130B104F3250F41196E1E0F0E0EC0FFD1FE40FCA
S1130B20F11D80834F5FF1CF0115110551F4E1E010
S1130B30F0E0EC0FFD1FE40FF11D80E380834F5FB5
S1130B4049C050E00115110581F1543070F5980148
S1130B50ADECBCEC0E94E20C969587959695879532
S1130B60969587959C01220F331F880F991F880F34
S1130B70991F880F991F820F931F9801281B390B07
S1130B80C901E1E3F0E0EC0FFD1FE50FF11D805D0D
S1130B90808398010E94E20C8C01169507951695A6
S1130BA00795169507955F5FCDCF552399F04F3282
S1130BB088F45150E1E3F0E0EC0FFD1FE50FF11D67
S1130BC08081E1E0F0E0EC0FFD1FE40FF11D808374
S1130BD04F5FEBCFE1E0F0E0EC0FFD1FE40FF11D00
S1130BE0108200E010E020E130E048E151E069E9E2
S1130BF070E084E190E00E9460012FEF3FEFAE01CE
S1130C004F5F5F4F69E970E084E190E00E94470222
S1130C10E5960FB6F894DEBF0FBECDBFDF91CF913E
S1130C201F910F91FF90089580E00E94E4020895BF
S1130C309091C00095FFFCCF8093C6000895CF9398
S1130C40DF93EC018881882321F021960E94180605
S1130C50F9CFDF91CF9108958091E205882331F097
S1130C6080910601823020F480E003C080E001C05E
S1130C7081E0882321F08AE092E00E941F0685B17A
S1130C808E7F85B987E893E10197F1F700C00000F2
S1130C9085B1816085B987E893E10197F1F700C0D8
S1130CA000008091E205882331F0809106018230B2
S1130CB020F480E003C080E001C081E0882321F0BB
S1130CC08BE192E00E941F0681E00E94C1008BE745
S1130CD092E90197F1F700C000008091E2058823B2
S1130CE031F080910601823020F480E003C080E07E
S1130CF001C081E0882321F08BE292E00E941F066C
S1130D0081E10E94C1008BE792E90197F1F700C0ED
S1130D1000008091E205882331F080910601823041
S1130D2020F480E003C080E001C081E0882321F04A
S1130D308AE392E00E941F068AE30E94C10085E5CF
S1130D400E94CD0083EC99E00197F1F700C0000008
S1130D508091E205882331F080910601823020F4ED
S1130D6080E003C080E001C081E0882321F089E4B1
S1130D7092E00E941F0686E30E94C10080EA0E945E
S1130D80CD0083EC99E00197F1F700C00000809159
S1130D90E205882331F080910601823020F480E05E
S1130DA003C080E001C081E0882321F088E592E05F
S1130DB00E941F0681E20E94C10083EC99E0019722
S1130DC0F1F700C000008091E205882331F08091A2
S1130DD00601823020F480E003C080E001C081E09D
S1130DE0882321F086E692E00E941F0689E20E9491
S1130DF0C10087EA91E60197F1F700C000008091F5
S1130E00E205882331F080910601823020F480E0ED
S1130E1003C080E001C081E0882321F085E792E0EF
S1130E200E941F0680E090E00E94260183ED90E37B
S1130E300197F1F700C000008091E205882331F0AA
S1130E4080910601823020F480E003C080E001C07C
S1130E5081E0882321F088E892E00E941F060E9426
S1130E60140681E08093E30583E992E00E941F0663
S1130E7008951F93CF93DF93CDB7DEB761970FB675
S1130E80F894DEBF0FBECDBF182F81E1E8EAF2E08F
S1130E90DE01119601900D928A95E1F7812F8295DA
S1130EA08F70E1E0F0E0EC0FFD1FE80FF11D808191
S1130EB00E9418061F70E1E0F0E0EC0FFD1FE10F47
S1130EC0F11D80810E94180661960FB6F894DEBF6A
S1130ED00FBECDBFDF91CF911F9108951F93CF9384
S1130EE0DF9300D000D000D0CDB7DEB7AC01892BA2
S1130EF021F480E30E94180641C010E04115510519
S1130F0081F1153070F59A01ADECBCEC0E94E20C55
S1130F109695879596958795969587959C01220F2A
S1130F20331F880F991F880F991F880F991F820FED
S1130F30931F9A01281B390BC901E1E0F0E0EC0F83
S1130F40FD1FE10FF11D805D80839A010E94E20C78
S1130F50AC015695479556954795569547951F5F0D
S1130F60CDCF112359F01150E1E0F0E0EC0FFD1F5B
S1130F70E10FF11D80810E941806F3CF26960FB66B
S1130F80F894DEBF0FBECDBFDF91CF911F910895BE
S1130F900F931F93CF93DF938B01D42F0E941806D6
S1130FA0C0E0CD1740F4F801EC0FF11D80810E94E0
S1130FB01806CF5FF6CF8AE00E941806DF91CF9122
S1130FC01F910F910895EF92FF920F931F93CF9368
S1130FD0DF9300D0CDB7DEB780912406882309F4CF
S1130FE07FC380912506809322068091E2058823A1
S1130FF031F080910601833020F480E003C080E06A
S113100001C081E0882321F089EB92E00E941F0651
S1131010809122060E94390789E394E00E941F060A
S1131020E09122068E2F90E0FC013197EC30F1051F
S113103008F050C3EC5CFF4F0C94DC0C80911F064D
S113104090912006898380911F06909120069A83AF
S113105042E0BE016F5F7F4F81E00E94C8073AC340
S113106080912106898341E0BE016F5F7F4F83E059
S11310700E94C8072FC380912406823008F42AC333
S1131080109126068091E205882331F080910601B3
S1131090823020F480E003C080E001C081E0882336
S11310A021F085ED92E00E941F06812F90E00E94BE
S11310B06E0789E394E00E941F06812F0E949E0020
S11310C00E94730207C30E94730204C38091240622
S11310D0823008F4FFC280912406823030F080917F
S11310E0260680930701E2E001C0E1E08091240636
S11310F0E81760F501E00E0FF0E0EB5DF94F1081A9
S1131100103160F4212F30E0200F311D809124062E
S113111090E08217930724F480E003C080E001C0CC
S113112081E0882391F0E12EF12C602F70E06B5D5B
S1131130794FA70188E391E00E94F10CF701E85C84
S1131140FE4F1082E02FE10F01C0E02F80912406B2
S1131150E81760F501E00E0FF0E0EB5DF94F108148
S1131160103260F4212F30E0200F311D80912406CD
S113117090E08217930724F480E003C080E001C06C
S113118081E0882391F0E12EF12C602F70E06B5DFB
S1131190794FA70188E191E00E94F10CF701E85E24
S11311A0FE4F1082E02FE10F01C0E02F8091240652
S11311B0E81760F501E00E0FF0E0EB5DF94F1081E8
S11311C0103160F4212F30E0200F311D809124066E
S11311D090E08217930724F480E003C080E001C00C
S11311E081E0882391F0E12EF12C602F70E06B5D9B
S11311F0794FA70188E091E00E94F10CF701E85FC4
S1131200FE4F1082E02FE10F01C0E02F80912406F1
S1131210E81740F4AE2FB0E0AB5DB94F8C918093EA
S11312201606EF5F80912406E817B0F501E00E0F73
S1131230F0E0EB5DF94F1081103158F5112361F0A6
S1131240212F30E0200F311D8091240690E0821779
S1131250930724F480E003C080E001C081E0882388
S113126091F0E12EF12C602F70E06B5D794FA701B6
S113127085E096E00E94F10CF701EB5FF94F1082D4
S1131280E02FE10F09C0111106C010920506E02FEE
S113129003C0E02F01C0E02F80912406E81740F43A
S11312A0AE2FB0E0AB5DB94F8C9180931506EF5F24
S11312B080912406E81740F4AE2FB0E0AB5DB94F3F
S11312C08C918093E405EF5F80912406E817E0F4A5
S11312D081E08E0FF0E0EB5DF94FE081EE2361F0E9
S11312E04E2F50E0480F511D2091240630E0241762
S11312F0350724F490E003C090E001C091E0992305
S113130011F0E80F01C0E82F80912406E81768F572
S113131061E06E0FF0E0EB5DF94F00818FEF800F1D
S11313208F3160F4202F30E0260F311D8091240688
S113133090E08217930724F480E003C080E001C0AA
S113134081E0882371F010E070E06B5D794FA801B3
S113135085EE95E00E94F10CF801EB51FA4F1082F2
S113136004C0011102C01092E50581E00E94E4026C
S1131370B1C180912406823008F4ACC110912606D4
S1131380103108F0A7C1112361F0212F30E02E5F46
S11313903F4F8091240690E08217930724F480E065
S11313A003C080E001C081E0882379F0E12EF12CB4
S11313B0A70167E276E085E096E00E94F10CF70170
S11313C0EB5FF94F10821E5F07C0111104C0109229
S11313D0050612E001C012E0212F30E0A9014E5FA2
S11313E05F4F8091240690E084179507C4F01F5F37
S11313F0F901EB5DF94F808180931506E12FF0E050
S1131400EB5DF94F80818093E40584E680931E06AA
S11314108091150681118091E4050E949E0081E06F
S11314200E94E40257C180912406823008F452C11C
S1131430809126068093E2058091E205882331F0AD
S113144080910601823020F480E003C080E001C076
S113145081E0882321F085EF92E00E941F068091AD
S1131460E2058823A9F08091E205882331F0809178
S11314700601823020F480E003C080E001C081E0F6
S1131480882309F427C189E294E00E941F0622C13F
S11314908091E205882331F080910601823020F4A6
S11314A080E003C080E001C081E0882309F412C118
S11314B083E093E00E941F060DC1809124068230D0
S11314C008F408C1809126068093060180910601E4
S11314D0843018F083E0809306018091E20588232C
S11314E031F080910601823020F480E003C080E076
S11314F001C081E0882321F08EE093E00E941F0662
S11315008091060190E00E946E0789E394E00E94B6
S11315101F06E0C080912406833008F4DBC0E5E2B6
S1131520F6E02181828190E0982F8827822B909386
S11315301D0680931C0610921B0610921A06109228
S113154019061092180681E0809317068091E2052F
S1131550882331F080910601823020F480E003C0BA
S113156080E001C081E0882321F088E293E00E94BA
S11315701F0680911C0690911D060E946E0789E348
S113158094E00E941F06A6C080911706882331F0BC
S113159080912406843020F4F12C04C0F12C02C084
S11315A0FF24F394FF2009F495C0E5E2F6E02181DD
S11315B0828190E0982F8827822B03812FEF200FC0
S11315C0203460F42091240630E024503109402F67
S11315D050E0241735071CF4F12C01C0F12CFF2036
S11315E009F478C09C010024369527950794369514
S11315F027950794322F202DC9019695879560E48D
S113160071E00E94C80CFC01C90160E872E00E940C
S1131610C80C802F8695AF01480F511D413481E0DD
S1131620580710F040E451E0415051099B01CF01AB
S11316300E94D90085B18B7F85B985B1826085B957
S113164010E0101748F4E12FF0E0E75DF94F8081D6
S11316500E94BC001F5FF5CF85B1846085B980917D
S11316601A0690911B06800F911D90931B06809380
S11316701A068091180690911906019690931906FE
S11316808093180620911A0630911B0680911C063F
S113169090911D0628173907E8F0109217068091DB
S11316A0E205882331F080910601823018F4F12C90
S11316B001C0F12CFF2021F080E593E00E941F0679
S11316C080911A0690911B060E946E0782E793E0B0
S11316D00E941F06109224061092220610922306DE
S11316E00F900F90DF91CF911F910F91FF90EF908A
S11316F0089584B7877F84BF0FB6F894A895809126
S11317006000886180936000109260000FBE8FE4D7
S113171093EC0197F1F700C000000E94D30287EA1E
S113172091E60197F1F700C000008BE793E00E9477
S11317301F0683EA93E00E941F0685EB93E00E9454
S11317401F060E94800080ED93E00E941F060E9405
S1131750950082EE93E00E941F060E94A20084EF8F
S113176093E00E941F0687EA91E60197F1F700C013
S113177000000E942C0683E992E00E941F0685E087
S1131780E6E0F4E0A8E3B1E001900D928A95E1F778
S11317908AE0E8E8F1E0A8E1B1E001900D928A95D1
S11317A0E1F78AE0EEE7F1E0A8E0B1E001900D9204
S11317B08A95E1F71092160681E0809315068FEF63
S11317C08093E40580E8809307018BE094E00E9415
S11317D01F0678948EE194E00E941F0683E394E050
S11317E00E941F068091230681110E94E3078091C5
S11317F0E1058F5F8093E105853038F11092E105B2
S11318000E9487009093200680931F0680911E06F5
S1131810882369F080911E06815080931E06809172
S1131820150681118091E4050E949E000EC08091EE
S11318301F0690912006843F914020F080E00E9492
S11318409E0003C08FEF0E949E008091DF0590915F
S1131850E00501969093E0058093DF050A9768F10F
S11318601092E0051092DF0520911F0630912006AA
S113187080910401909105018217930738F4209117
S11318801F0630912006281B390B08C020911F0623
S113189030912006AC01421B530B9A0125303105CF
S11318A010F4019651F40E94140680911F06909141
S11318B0200690930501809304018091DD059091A9
S11318C0DE0501969093DE058093DD058A3F910540
S11318D018F11092DE051092DD058CE394E00E946D
S11318E01F0680911F06909120060E946E078CE4CB
S11318F094E00E941F0680911F0690912006892F74
S11319000E94390780911F06909120060E94390792
S113191081E594E00E941F0687E893E10197F1F7BF
S113192000C000005FCF1F920F920FB60F921124D8
S11319308F939F93EF93FF938091C6008A3011F0A9
S11319408D3041F4809124068823C9F081E080938E
S1131950230615C090912306911111C0909124067D
S11319609F3F59F0E091240691E09E0F9093240646
S1131970F0E0EB5DF94F808302C010922406FF91E2
S1131980EF919F918F910F900FBE0F901F9018951C
S1131990AA1BBB1B51E107C0AA1FBB1FA617B70791
S11319A010F0A61BB70B881F991F5A95A9F78095AD
S11319B09095BC01CD010895EE0FFF1F0590F491A1
S11319C0E02D0994A29FB001B39FC001A39F700DA5
S11319D0811D1124911DB29F700D811D1124911D33
S11319E00895FB01DC0102C001900D92415050406A
S11319F0D8F70895FB01DC018D9101908019011045
S1131A00D9F3990B0895FB01DC014150504048F093
S1131A1001900D920020C9F701C01D924150504021
S10B1A20E0F70895F894FFCFEC
S1131A28FFFFFFFFFFFF02807573620000000000E4
S1131A38000000000000000050726F66696C6520A9
S1131A483100000000000000000000000000000059
S1131A5800000000000000006461746100000000E0
S1131A6800000000000000005553420049444C4562
S1131A7800424C5545544F4F544800696D616765A1
S1131A88006769660057454C434F4D4520544F2025
S1131A984D59204B45595041440075736200626C9E
S1131AA87565746F6F74680050726F66696C652031
S1131AB831004D4F444520444520434F4E4E454345
S1131AC854494F4E203A2000576972656400426CAD
S1131AD87565746F6F746800415050415245494CA4
S1131AE8203A2000415543554E4500544F5543482C
S1131AF845203A2000544F5543484520434F4E460D
S1131B084947555245203A2000524554524F2D45D5
S1131B18434C414952414745203A20004C554D49D0
S1131B284E4F53495445203A20005B5446545D2097
S1131B3872657365742068770D0A005B5446545DBA
S1131B4820737772657365740D0A005B5446545D9F
S1131B5820736C706F75740D0A005B5446545D20D5
S1131B68636F6C6D6F640D0A005B5446545D206DA1
S1131B78616463746C0D0A005B5446545D20696E9D
S1131B88766F6E0D0A005B5446545D206469737069
S1131B986F6E0D0A005B5446545D2066696C6C20B8
S1131BA8626C61636B0D0A005B5446545D20756971
S1131BB80D0A0053543737383920696E69746961DE
S1131BC86C697A65640D0A0030313233343536373E
S1131BD83839414243444546005B554152545D20DF
S1131BE8436F6D6D616E64207265636569766564C3
S1131BF83A203078005B554152545D205365747423
S1131C08696E67204C4544206272696768746E6522
S1131C1873733A20005B554152545D2044656275E4
S1131C2867200064697361626C65640D0A005B5522
S1131C384152545D204C6F67206C6576656C207347
S1131C48657420746F3A20005B554152545D2053EB
S1131C5874617274696E6720696D61676520726565
S1131C6863657074696F6E2C2073697A653A200015
S1131C785B554152545D20496D6167652072656307
S1131C88657074696F6E20636F6D706C6574652C14
S1131C9820002062797465730D0A000D0A3D3D3DEC
S1131CA82041546D65676133323850204C69676848
S1131CB87420436F6E74726F6C6C6572203D3D3D89
S1131CC80D0A005541525420426175643A20393650
S1131CD830300D0A00426F6F742073657175656E3C
S1131CE8636520737461727465642E2E2E0D0A0068
S1131CF841444320696E697469616C697A65640D4D
S1131D080A0050574D20696E697469616C697A6577
S1131D18640D0A0053504920696E697469616C69DD
S1131D287A65640D0A006461746100554152542057
S1131D38696E697469616C697A65640D0A00496E33
S1131D48746572727570747320656E61626C656413
S1131D580D0A005265616479210D0A005B4C4947FC
S1131D6848545D204C6576656C3A2000202830780C
S1131D7800290D0A00000000000000005F000000B8
S1131D8807000700147F147F14242A7F2A122313C0
S1131D9808646236495522500005030000001C22DD
S1131DA841000041221C0014083E081408083E089B
S1131DB8080000A060000808080808006060000027
S1131DC820100804023E5149453E00427F4000422B
S1131DD8615149462141454B311814127F1027455A
S1131DE84545393C4A494930017109050336494991
S1131DF84936064949291E00363600000056360081
S1131E080008142241001414141414004122140864
S1131E180201510906324959513E7C1211127C7F44
S1131E28494949363E414141227F4141221C7F496B
S1131E384949417F090909013E4149497A7F08080E
S1131E48087F00417F41002040413F017F08142260
S1131E58417F404040407F020C027F7F0408107F8E
S1131E683E4141413E7F090909063E4151215E7FB9
S1131E7809192946464949493101017F01013F4071
S1131E8840403F1F2040201F3F4038403F63140814
S10F1E98146307087008076151494543B2
S9030000FC
