S014000061746D6567615F6C696768742E737265632A
S11300000C94D7000C94F4000C94F4000C94F400B9
S11300100C94F4000C94F4000C94F4000C94F4008C
S11300200C94F4000C94F4000C94F4000C94F4007C
S11300300C94F4000C94F4000C94F4000C94F4006C
S11300400C94F4000C94F4000C9463150C94F400D8
S11300500C94F4000C94F4000C94F4000C94F4004C
S11300600C94F4000C94F400A80EC50EBA0EF50E10
S1130070FC0EEE13EE13B912FA1242128C12211175
S1130080EE13A611B711000000000000005F00008D
S11300900007000700147F147F14242A7F2A1223E8
S11300A01308646236495522500005030000001C01
S11300B02241000041221C0014083E081408083E96
S11300C008080000A0600008080808080060600034
S11300D00020100804023E5149453E00427F400082
S11300E042615149462141454B311814127F102772
S11300F0454545393C4A49493001710905033649AA
S1130100494936064949291E00363600000056364C
S11301100000081422410014141414140041221481
S1130120080201510906324959513E7C1211127CD0
S11301307F494949363E414141227F4141221C7F4A
S1130140494949417F090909013E4149497A7F08E2
S113015008087F00417F41002040413F017F08148F
S113016022417F404040407F020C027F7F04081000
S11301707F3E4141413E7F090909063E4151215ECE
S11301807F09192946464949493101017F01013F47
S11301904040403F1F2040201F3F4038403F6314F1
S11301A00814630708700807615149454300112486
S11301B01FBECFEFD8E0DEBFCDBF14E0A0E0B1E0BA
S11301C0E6E5FCE202C005900D92A232B107D9F730
S11301D027E0A2E2B4E001C01D92A635B207E1F720
S11301E00E9407140C9429160C940000FC01643638
S11301F038F081E3808380E38183828313820895CE
S11302006A30A0F08DEC689F812D11248695869527
S1130210869590E3980F9083880F982F990F990FE4
S1130220890F681B605D618312820895605D60833D
S113023011820895FC01643648F189E2689F812D9A
S1130240112482958F70805D80838DEC689F912D41
S11302501124969596959695989F812D11248695AF
S113026086958695880F282F220F220F820F292F1B
S1130270281B822F805D8183990F892F880F880F17
S1130280980F691B605D6283138208956A30A0F041
S11302908DEC689F812D112486958695869590E333
S11302A0980F9083880F982F990F990F890F681BC7
S11302B0605D618312820895605D60831182089598
S11302C0DC0150E0E52FF0E0242F30E0215031092B
S11302D0E217F3078CF4109779F09C91992361F05D
S11302E011968FE9890F8A3108F49052FB01E50FCA
S11302F0F11D90835F5FE6CFFB01E50FF11D1082D6
S11303000895CF92DF92EF92FF920F931F93CF93B2
S1130310DF93CDB7DEB72E970FB6F894DEBF0FBECE
S1130320CDBF7C01062F84E6489F90011124A1EFE4
S1130330B0EF0E94F9156C01D694C794D694C79473
S1130340D694C794D694C7941982642FCE0101968B
S11303500E941A01FE01319680E09081992381F078
S1130360482F50E0202F30E028503109421753071E
S11303703CF4D701A80FB11D31969C938F5FEDCF4C
S113038011E0180FF701E80FF11D8FE2808361E19E
S1130390CE0101960E941A01FE0131964081442348
S11303A079F0212F30E0802F90E006972817390745
S11303B03CF4D701A10FB11D31964C931F5FEECFD2
S11303C081E0810FF701E10FF11D90E290831E5F40
S11303D0F701E80FF11D88E280836C2DCE010996A8
S11303E00E94F600FE0139964081442379F0212FC2
S11303F030E0802F90E00297281739073CF4D701AA
S1130400A10FB11D31964C931F5FEECF81E0810F98
S1130410F701E10FF11D95E290831E5FF701E80FEC
S1130420F11D89E28083F701E10FF11D10822E9600
S11304300FB6F894DEBF0FBECDBFDF91CF911F91F1
S11304400F91FF90EF90DF90CF90089580E4809318
S11304507C0087E880937A000895EAE7F0E08081E1
S11304608064808380917A0086FDFCCF809178003F
S113047090917900089581E284BD81E085BD8AB1BF
S113048080628AB918BC089580934D0588BD08958B
S113049010923D0510920C0510924A0580E00E94CE
S11304A0440208958091CA04882331F010924A05C9
S11304B080E00E944402089584E680934A05809176
S11304C03D05811180910C050E944402089584B178
S11304D0846084B985B1846085B984B1826084B94B
S11304E084B1816084B985B1816085B984B1886241
S11304F084B984B18F7E84B980E58CBD81E08DBDE3
S113050008958EBD0DB407FEFDCF0895CF93C82F77
S1130510803191F40E94480285B18B7F85B985B101
S11305208D7F85B98C2F0E94810285B1846085B945
S113053081E08093CA0427C08091CA048823B9F05B
S113054085B18B7F85B985B18D7F85B981E10E94A5
S1130550810285B1846085B92FEF8DEE92E0215040
S113056080409040E1F700C000001092CA0485B1B9
S11305708B7F85B985B18D7F85B98C2F0E948102CF
S113058085B1846085B9CF91089595B19B7F95B964
S113059095B1926095B90E94810285B1846085B954
S11305A00895CF92DF92EF92FF920F931F93CF9310
S11305B0DF93D82EC92EF42EE52E8B010D5D1F4F2F
S11305C0E901A3968AE20E94860285B18B7F85B9F0
S11305D085B1826085B98C2D0E9481028D2D0E9487
S11305E081028E2D0E9481028F2D0E94810285B18D
S11305F0846085B98BE20E94860285B18B7F85B9C0
S113060085B1826085B9812F0E948102802F0E946A
S113061081028D2F0E9481028C2F0E94810285B15C
S1130620846085B98CE20E948602DF91CF911F918C
S11306300F91FF90EF90DF90CF900895EF92FF928B
S11306400F931F93CF93DF93182F092F29EA30E0DC
S11306504FE351E060E070E080E090E00E94D1025E
S113066085B18B7F85B985B1826085B9E12CF12C88
S11306708AEAE816F10490F4C0E0D0E0C03481E0E6
S1130680D80740F4802F0E948102812F0E948102AA
S11306902196F4CF8FEFE81AF80AEACF85B1846087
S11306A085B9DF91CF911F910F91FF90EF9008953D
S11306B0CF92DF92EF92FF920F931F93CF93DF932A
S11306C07A0169019C01240F351F2134314028F03F
S11306D020E431E07901E81AF90A9B012C0D3D1D53
S11306E02B3A310528F02AEA30E06901C61AD70A04
S11306F09601260F371F21503109A701480F591FB2
S1130700415051090E94D10285B18B7F85B985B1D1
S1130710826085B9C0E0D0E0EC9CC001ED9C900DF6
S1130720FC9C900D1124C817D90740F4812F0E9416
S11307308102802F0E9481022196EECF85B18460D0
S113074085B9DF91CF911F910F91FF90EF90DF90CA
S1130750CF9008955F926F927F928F929F92AF9203
S1130760BF92CF92DF92EF92FF920F931F93CF939A
S1130770DF937C016B01622E532E802E712E40324A
S113078039F42EE030E04AE050E00E9458034CC0B7
S11307908FE9840F8A3108F4405240524B3308F0F9
S11307A043C0A42EB12C8BE3A816B1040CF03CC0BA
S11307B0912C84E08915C0F1F501EE0FFF1FEE0FB7
S11307C0FF1FEA0DFB1DE90DF11DEA57FF4FD49100
S11307D0C0E0C73038F581E090E00C2E02C0880FED
S11307E0991F0A94E2F72D2F30E082239323892B5B
S11307F019F0062D152D02C0082D172D6C2F70E051
S1130800660F771F6C0D7D1D892D90E0880F991F51
S113081022E030E042E050E08E0D9F1D0E9458031C
S1130820CF5FD7CF9394C5CFDF91CF911F910F9115
S1130830FF90EF90DF90CF90BF90AF909F908F90FC
S11308407F906F905F9008958F929F92AF92BF9226
S1130850CF92DF92EF92FF920F931F93CF93DF9388
S11308607C014B01EA01590168014881442359F094
S113087086019501B401C7010E94AA038CE0E80E29
S1130880F11C2196F2CFDF91CF911F910F91FF9030
S1130890EF90DF90CF90BF90AF909F908F9008958E
S11308A00F931F938A3A910558F4BC0100E21DEBA3
S11308B021E030E040E351E088E090E00E945803FA
S11308C01F910F9108950F931F9361157105A1F066
S11308D09B01280F391F2B3A310520F06AEA70E09A
S11308E0681B790B00E21DEB9B0141E050E0BC0169
S11308F086E090E00E9458031F910F9108950F9392
S11309001F939B01AC01460F571F4B3A510520F032
S11309102AEA30E0281B390B00E010E040E451E003
S1130920BC0180E090E00E9458031F910F9108954C
S11309302F923F924F925F926F927F928F929F92EB
S1130940AF92BF92CF92DF92EF92FF920F931F93D9
S1130950CF93DF932C014B01EA0139011801860181
S11309600E9458039E01D1010E94F915970140E0AD
S113097050E00E94D115C217D30708F0E90120976F
S113098039F085019301AE01B401C2010E945803FC
S1130990DF91CF911F910F91FF90EF90DF90CF9057
S11309A0BF90AF909F908F907F906F905F904F908B
S11309B03F902F9008956F927F928F929F92AF9263
S11309C0BF92CF92DF92EF92FF920F931F93CF9338
S11309D0DF937C016B0149015801403239F427E06F
S11309E030E045E050E00E9458036DC08FE9840F69
S11309F08A3108F4405288E1840F843088F080E220
S1130A00840F843078F087E0840F843068F084E1C8
S1130A10840F843058F08EE0840F843048F009C08D
S1130A2045E407C041E405C045E503C049E401C00D
S1130A304FE40F2EF0EE6F2EF02D640E8AE3861530
S1130A4008F441C0861508F43EC0712C84E0871573
S1130A50D0F1862D90E0FC01EE0FFF1FEE0FFF1F7B
S1130A60E80FF91FE70DF11DEA57FF4FD491C0E0DD
S1130A70C73038F58D2F90E00C2E02C095958795E0
S1130A800A94E2F780FF0EC0840121E030E041E0E7
S1130A9050E0B6016C0F711DC701870D911D0E94B6
S1130AA058030DC0850121E030E041E050E0B6017B
S1130AB06C0F711DC701870D911D0E945803CF5FF4
S1130AC0D7CF7394C3CFDF91CF911F910F91FF9034
S1130AD0EF90DF90CF90BF90AF909F908F907F90DA
S1130AE06F9008958F929F92AF92BF92CF92DF92B0
S1130AF0EF92FF920F931F93CF93DF937C014B01EF
S1130B00EA01590168014881442359F0860195019D
S1130B10B401C7010E94DB0486E0E80EF11C2196B3
S1130B20F2CFDF91CF911F910F91FF90EF90DF9063
S1130B30CF90BF90AF909F908F900895AF92BF9247
S1130B40CF92DF92EF92FF920F931F93CF93DF9395
S1130B50EC015B017A0169016881798100E010E0B0
S1130B602AE030E040E451E080E090E00E94580345
S1130B706AE070E0888199810E94630468817981C8
S1130B806F5F7F4F20EC3EEFA5018AE090E00E946A
S1130B907205688179816F5F7F4F9601A70186E7AF
S1130BA090E00E947205888199810A9699838883CE
S1130BB0DF91CF911F910F91FF90EF90DF90CF9035
S1130BC0BF90AF9008957F928F929F92AF92BF9201
S1130BD0CF92DF92EF92FF920F931F93CF93DF9305
S1130BE0CDB7DEB7A4970FB6F894DEBF0FBECDBF66
S1130BF07C01762E862E912C84E6889D9001899D19
S1130C00300D1124A1EFB0EF0E94F9155C01B694E8
S1130C10A794B694A794B694A794B694A79462E1C3
S1130C2070E0C7010E947F0462E170E0C7010E9486
S1130C306304670182E0C80ED11C00E010E020ECE0
S1130C403EEF49E551E0B6018AE090E00E9472056A
S1130C501982672DCE0101960E941A01DE011196B8
S1130C6080E09C91992361F08E3050F41196E9E074
S1130C70F0E0EC0FFD1FE80FF11D90838F5FF1CFC3
S1130C8011E0180FE9E0F0E0EC0FFD1FE80FF11D93
S1130C908FE2808361E1CE0101960E941A01DE0198
S1130CA011968C91882361F0103150F41196E9E08B
S1130CB0F0E0EC0FFD1FE10FF11D80831F5FF1CF0A
S1130CC081E0810FE9E0F0E0EC0FFD1FE10FF11D81
S1130CD090E290831E5FE9E0F0E0EC0FFD1FE80F67
S1130CE0F11D88E280836A2DCE014F960E94F600A2
S1130CF0DE015F968C91882361F0143150F41196D3
S1130D00E9E0F0E0EC0FFD1FE10FF11D80831F5FB0
S1130D10F1CF81E0810FE9E0F0E0EC0FFD1FE10F7E
S1130D20F11D95E290831E5FE9E0F0E0EC0FFD1FFA
S1130D30E80FF11D89E28083E9E0F0E0EC0FFD1F8C
S1130D40E10FF11D108200E010E02FEF3FEFAE0144
S1130D50475F5F4FB60186E790E00E947205B701D6
S1130D60625F7F4F0F2EF0E2AF2EFDEFBF2EF02D0E
S1130D700F2EF0E2CF2EFDEBDF2EF02D0F2EF1E142
S1130D80EF2EF12CF02D840123E030E04CE251E011
S1130D908AE090E00E949804A4960FB6F894DEBF0F
S1130DA00FBECDBFDF91CF911F910F91FF90EF90B8
S1130DB0DF90CF90BF90AF909F908F907F900895D9
S1130DC08F929F92AF92BF92CF92DF92EF92FF9257
S1130DD00F931F93CF93DF93CDB7DEB728970FB64A
S1130DE0F894DEBF0FBECDBF7C014B01611574408A
S1130DF030F00F2E88248A94F3E09F2EF02D940176
S1130E00A4E6B0E00E94F9152FEF33E040E050E093
S1130E100E94D115B22E60E170E0C7010E947F04E8
S1130E2060E170E0C7010E946304670182E0C80EBC
S1130E30D11C00E010E020EC3EEF41E651E0B601A9
S1130E408AE090E00E9472056B2DCE0101960E940B
S1130E50F60080E0282F30E0E1E0F0E0EC0FFD1F29
S1130E60E20FF31F9081992321F0863010F48F5FF5
S1130E70F1CF8F5FE1E0F0E0EC0FFD1FE20FF31F15
S1130E8095E29083E1E0F0E0EC0FFD1FE80FF11D27
S1130E90108200E010E020E23DEFAE014F5F5F4FB3
S1130EA0B60186E790E00E947205B701655F7F4F47
S1130EB00F2EF0E2AF2EFDEFBF2EF02D0F2EF0E23D
S1130EC0CF2EFDEBDF2EF02D0F2EEE24EA94F3E06F
S1130ED0FF2EF02D840122E030E04CE251E08AE064
S1130EE090E00E94980428960FB6F894DEBF0FBED7
S1130EF0CDBFDF91CF911F910F91FF90EF90DF90C5
S1130F00CF90BF90AF909F908F900895CF92DF9233
S1130F10EF92FF920F931F93CF93DF93CDB7DEB77A
S1130F2028970FB6F894DEBF0FBECDBF7C01C62E46
S1130F30D42E6CE070E00E947F046CE070E0C70186
S1130F400E94630483E0E80EF11C00E010E020EC52
S1130F503EEF49E651E0B7018AE090E00E94720555
S1130F60CC2009F455C02D2D30E0A4E6B0E00E9459
S1130F70F91561587F4F8F4F9F4F2FEF30E040E0BE
S1130F8050E00E94D115D22E84E6821720F40F2E51
S1130F90F4E6DF2EF02D00E010E020E23DEF47EC18
S1130FA051E0B7018CE790E00E9472056D2DCE01EF
S1130FB001960E94F60090E0292F30E0E1E0F0E095
S1130FC0EC0FFD1FE20FF31F8081882321F0963080
S1130FD010F49F5FF1CF9F5FE1E0F0E0EC0FFD1FA5
S1130FE0E20FF31F85E28083E1E0F0E0EC0FFD1FE8
S1130FF0E90FF11D108200E010E02FEF3FEFAE018A
S11310004F5F5F4FB70184EC90E00E94720514C0FB
S113101000E010E020EC3EEF4FE651E0B70180E63F
S113102090E00E94720520EC3EEF43E751E0B701E7
S113103084EC90E00E94720528960FB6F894DEBF07
S11310400FBECDBFDF91CF911F910F91FF90EF9015
S1131050DF90CF900895AF92BF92CF92DF92EF923C
S1131060FF920F931F93CF93DF93EC015B017A01FF
S113107069016CE070E00E947F046CE070E0CE01D6
S11310800E946304239600E010E020EC3EEFA501EB
S1131090BE018AE090E00E9472059601A701BE019C
S11310A086E790E00E947205DF91CF911F910F9126
S11310B0FF90EF90DF90CF90BF90AF9008952FEF07
S11310C03FEF0E942B080895E0ECF0E080818260FD
S11310D080831092C50080E18093C40088E98093E6
S11310E0C10086E08093C20008950F931F9380E0AF
S11310F090E00E941E0300E010E020EC3EEF46E783
S113110051E062E070E08AE090E00E94240483E20F
S113111090E00E9450041F910F9108950F931F9324
S1131120CF93DF93CDB7DEB7C754D1090FB6F89488
S1131130DEBF0FBECDBF8CE490E099A788A700E086
S113114010E02EE530E040E451E06CE470E080E033
S113115090E00E9458038CE490E00E9450048EE4D6
S113116090E099A788A780912901882319F089E242
S113117091E002C08EE791E041E1BE016F5F7F4FD5
S11311800E9460012FEF3FEFAE014F5F5F4F6DEAAA
S113119071E0CE0188960E949E0564EB71E089E1BE
S11311A091E00E941116892B69F068EB71E089E1E6
S11311B091E00E941116892B51F027EF3DEB4BE88B
S11311C051E009C020EF37E047E851E004C02FEDBB
S11311D03DE440E951E062EC71E0CE0188960E9462
S11311E09E0580910D0581110BC068EB71E089E1CA
S11311F091E00E941116892B31F482EA91E005C036
S11312008DE095E002C08AE991E041E1BE016F5FA3
S11312107F4F0E9460012FEF3FEFAE014F5F5F4FA2
S11312206AEC71E0CE0188960E949E0580912D059E
S1131230882319F08DE295E002C08BEA91E041E148
S1131240BE016F5F7F4F0E9460012FEF3FEFAE0141
S11312504F5F5F4F6FEC71E0CE0188960E949E0550
S113126040913E0566E1CE0142960E9481012FEF36
S11312703FEFAE014E5E5F4F69E571E0CE018896A7
S11312800E949E0520914B0530914C05211584E068
S1131290380710F02FEF33E0A4E6B0E00E94F91510
S11312A02FEF33E040E050E00E94D115622FCE01D1
S11312B08A960E94F60080E0282F30E0EAE2F0E00F
S11312C0EC0FFD1FE20FF31F9081992321F086306C
S11312D010F48F5FF1CF8F5FEAE2F0E0EC0FFD1FB7
S11312E0E20FF31F95E29083EAE2F0E0EC0FFD1FBA
S11312F0E80FF11D108220E23DEFAE01465D5F4F25
S113130061E671E0CE0188960E949E0580913D05BC
S1131310882311F081E001C080E020910C0588232E
S113132009F443C030E0A4E6B0E00E94F915615826
S11313307F4F8F4F9F4F2FEF30E040E050E00E94EF
S1131340D115622F253608F064E6CE018E5B9F4FDF
S11313500E94F6008FE48AAB8EE48BAB80E28CAB08
S1131360DE01AE5BBF4F83E09C91992361F08E3028
S113137050F41196E2E3F0E0EC0FFD1FE80FF11DCD
S113138090838F5FF1CF91E0980FE2E3F0E0EC0FF0
S1131390FD1FE80FF11D85E28083E2E3F0E0EC0F2E
S11313A0FD1FE90FF11D108206C08FE48AAB86E4AD
S11313B08BAB8CAB1DAA2FEF3FEFAE014E5C5F4FA2
S11313C069E671E0CE0188960E949E058091EC0446
S11313D0882399F041E1BE016F5F7F4F8CEE94E06A
S11313E00E9460012FEF3FEFAE014F5F5F4F66ED4C
S11313F071E0CE0188960E949E058091CC048823DA
S113140099F041E1BE016F5F7F4F8CEC94E00E9444
S113141060012FEF3FEFAE014F5F5F4F6AED71E068
S1131420CE0188960E949E05C95BDF4F0FB6F894E3
S1131430DEBF0FBECDBFDF91CF911F910F910895F5
S1131440CF92DF92EF92FF921F93CF93DF93CDB7AA
S1131450DEB761970FB6F894DEBF0FBECDBF909193
S11314603F059111CCC1182F6EED71E089E491E034
S11314700E941116892B09F4C2C164EE71E089E45B
S113148091E00E941116892B09F4B9C18091C90415
S11314908823E9F01092C2041092A20410929204DC
S11314A010927204109262048FEF8093140180935F
S11314B01301809312018FEF9FEF9093110180939A
S11314C0100110924204109222041092C9048091D7
S11314D0C204811105C00E94750881E08093C20492
S11314E080912901882339F00F2EF9E2EF2EF1E0E3
S11314F0FF2EF02D06C00F2EFEE7EF2EF1E0FF2E9B
S1131500F02D62EA74E0C7010E941116892BC9F01C
S11315104FE150E0B70182EA94E00E941A1610925B
S1131520C10441E1BE016F5F7F4FC7010E946001AA
S1131530AE014F5F5F4F6DEA71E086E290E00E947A
S11315405F0864EB71E089E191E00E941116892B38
S1131550A9F068EB71E089E191E00E941116892BF2
S1131560D1F00F2EF7EFCF2EFDEBDF2EF02D0F2E47
S1131570FBE8EF2EF1E0FF2EF02D19C00F2EF0EF57
S1131580CF2EF7E0DF2EF02D0F2EF7E8EF2EF1E04F
S1131590FF2EF02D0CC00F2EFFEDCF2EFDE4DF2E1D
S11315A0F02D0F2EF0E9EF2EF1E0FF2EF02D62E981
S11315B074E089E191E00E941116892B91F04FE0CB
S11315C050E069E171E082E994E00E941A161092F9
S11315D0A1049601A70162EC71E082E390E00E940D
S11315E02B0880910D0581110FC068EB71E089E132
S11315F091E00E941116892B71F40F2EF2EAEF2E5E
S1131600F1E0FF2EF02D0DC00F2EFDE0EF2EF5E0E2
S1131610FF2EF02D06C00F2EFAE9EF2EF1E0FF2E7B
S1131620F02D111107C062E774E0C7010E94111682
S1131630892BC9F04FE150E0B70182E794E00E94A2
S11316401A161092910441E1BE016F5F7F4FC701EA
S11316500E946001AE014F5F5F4F6AEC71E08EE360
S113166090E00E945F0880912D05882339F00F2EA9
S1131670FDE2EF2EF5E0FF2EF02D06C00F2EFBEA63
S1131680EF2EF1E0FF2EF02D111107C062E674E099
S1131690C7010E941116892BC9F04FE050E0B70131
S11316A082E694E00E941A161092710441E1BE0190
S11316B06F5F7F4FC7010E946001AE014F5F5F4FB4
S11316C06FEC71E08AE490E00E945F0860913E054F
S11316D080911401681731F06093140186E590E05D
S11316E00E94E30560914B0570914C0580911001B7
S11316F0909111016817790741F07093110160937B
S1131700100188E690E00E94E00680913D05882360
S113171011F061E001C060E040910C05809113017B
S1131720681304C080911201481741F060931301BB
S11317304093120188E790E00E94860762E474E017
S11317408CEE94E00E941116892B49F462E274E055
S11317508CEC94E00E941116892B09F450C04FE1DF
S113176050E06CEE74E082E494E00E941A16109249
S113177061044FE150E06CEC74E082E294E00E947A
S11317801A16109241048091EC048823A1F041E1DF
S1131790BE016F5F7F4F8CEE94E00E9460012FEFDB
S11317A03FEFAE014F5F5F4F66ED71E084E890E07C
S11317B00E942B0806C06CE070E084E890E00E9470
S11317C07F048091CC048823A1F041E1BE016F5FC6
S11317D07F4F8CEC94E00E9460012FEF3FEFAE014D
S11317E04F5F5F4F6AED71E080E990E00E942B0843
S11317F006C06CE070E080E990E00E947F0461968E
S11318000FB6F894DEBF0FBECDBFDF91CF911F910D
S1131810FF90EF90DF90CF90089580913F05811164
S113182018C06EED71E089E491E00E941116892BD5
S113183041F064EE71E089E491E00E941116892B75
S113184019F40E948E08089581E08093C9040E94CF
S1131850200A089580913F05811116C06EED71E054
S113186089E491E00E941116892B41F064EE71E045
S113187089E491E00E941116892B19F40E948E08C4
S1131880089580E00E94200A08959091C00095FF79
S1131890FCCF8093C6000895CF93DF93EC01888139
S11318A0882321F021960E94450CF9CFDF91CF9136
S11318B008958091C804882331F080911701823003
S11318C020F480E003C080E001C081E0882321F09F
S11318D088EE91E00E944C0C85B18E7F85B98FE330
S11318E09CE90197F1F700C0000085B1816085B9DA
S11318F08FE39CE90197F1F700C000008091C804D0
S1131900882331F080911701823020F480E003C0F5
S113191080E001C081E0882321F089EF91E00E94FA
S11319204C0C81E00E9486029FE729EA83E09150F3
S113193020408040E1F700C000008091C804882363
S113194031F080911701823020F480E003C080E000
S113195001C081E0882321F089E092E00E944C0CD0
S113196081E10E9486029FE729EA83E091502040AA
S11319708040E1F700C000008091C804882331F062
S113198080911701823020F480E003C080E001C020
S113199081E0882321F088E192E00E944C0C8AE3E4
S11319A00E94860285E50E94C5028FE19EE40197AC
S11319B0F1F700C000008091C804882331F08091C1
S11319C01701823020F480E003C080E001C081E090
S11319D0882321F087E292E00E944C0C86E30E9467
S11319E0860280EA0E94C5028FE19EE40197F1F726
S11319F000C000008091C804882331F08091170151
S1131A00823020F480E003C080E001C081E08823BC
S1131A1021F086E392E00E944C0C81E20E9486024F
S1131A208FE19EE40197F1F700C000008091C804A3
S1131A30882331F080911701823020F480E003C0C4
S1131A4080E001C081E0882321F084E492E00E94D8
S1131A504C0C89E20E9486029FEF20E782E09150BD
S1131A6020408040E1F700C000008091C804882332
S1131A7031F080911701823020F480E003C080E0CF
S1131A8001C081E0882321F083E592E00E944C0CA0
S1131A9080E090E00E941E039FE728E381E09150DC
S1131AA020408040E1F700C000008091C8048823F2
S1131AB031F080911701823020F480E003C080E08F
S1131AC001C081E0882321F086E692E00E944C0C5C
S1131AD00E942A0C81E08093CB0481E792E00E946B
S1131AE04C0C08951F93CF93DF93CDB7DEB7619766
S1131AF00FB6F894DEBF0FBECDBF182F81E1E6E824
S1131B00F2E0DE01119601900D928A95E1F7812FA2
S1131B1082958F70E1E0F0E0EC0FFD1FE80FF11DFE
S1131B2080810E94450C1F70E1E0F0E0EC0FFD1F86
S1131B30E10FF11D80810E94450C61960FB6F89467
S1131B40DEBF0FBECDBFDF91CF911F9108951F93CC
S1131B50CF93DF9300D000D000D0CDB7DEB7AC0177
S1131B60892B21F480E30E94450C41C010E041150B
S1131B70510581F1153070F59A01ADECBCEC0E9471
S1131B80F9159695879596958795969587959C01D1
S1131B90220F331F880F991F880F991F880F991FD1
S1131BA0820F931F9A01281B390BC901E1E0F0E071
S1131BB0EC0FFD1FE10FF11D805D80839A010E94EF
S1131BC0F915AC0156954795569547955695479501
S1131BD01F5FCDCF112359F01150E1E0F0E0EC0F7D
S1131BE0FD1FE10FF11D80810E94450CF3CF269665
S1131BF00FB6F894DEBF0FBECDBFDF91CF911F911A
S1131C0008951F93CF93DF93CDB7DEB72B970FB60D
S1131C10F894DEBF0FBECDBF611571058105910536
S1131C2021F480E30E94450C29C010E06115710580
S1131C3081059105B1F01A30A0F42AE030E040E0CB
S1131C4050E00E94D115E1E0F0E0EC0FFD1FE10F40
S1131C50F11D605D6083622F732F842F952F1F5FAA
S1131C60E5CF112359F01150E1E0F0E0EC0FFD1F36
S1131C70E10FF11D80810E94450CF3CF2B960FB626
S1131C80F894DEBF0FBECDBFDF91CF911F910895B1
S1131C900F931F93CF93DF938B01D42F0E94450C96
S1131CA0C0E0CD1740F4F801EC0FF11D80810E94D3
S1131CB0450CCF5FF6CF8AE00E94450CDF91CF91AF
S1131CC01F910F9108954F925F926F927F928F921E
S1131CD09F92AF92BF92EF92FF920F931F93CF9375
S1131CE0DF9300D000D000D0CDB7DEB78091D50609
S1131CF0882309F477C58091D60680934E05809198
S1131D00C804882331F080911701833020F480E0E7
S1131D1003C080E001C081E0882321F087E992E0DC
S1131D200E944C0C80914E050E94720D89E094E053
S1131D300E944C0CE0914E058E2F90E0FC013197EF
S1131D40EF30F10508F04AC5EC5CFF4F0C94F31535
S1131D5080914B0590914C05898380914B0590911E
S1131D604C059A8342E0BE016F5F7F4F81E00E9481
S1131D70480E34C580914D05898341E0BE016F5FF3
S1131D807F4F83E00E94480E29C58091D50682309A
S1131D9008F424C51091D7068091C804882331F033
S1131DA080911701823020F480E003C080E001C0FC
S1131DB081E0882321F083EB92E00E944C0C812F78
S1131DC090E00E94A70D89E094E00E944C0C809161
S1131DD0CA04882321F080E00E944402FFC4812FBA
S1131DE00E9444020E940D0CF9C48091CA0481111E
S1131DF0F5C40E940D0CF2C48091D506823008F41B
S1131E00EDC48091D506823030F08091D70680935E
S1131E10180122E001C021E08091D506281768F559
S1131E2001E0020FE22FF0E0EA52F94F1081103185
S1131E3060F4212F30E0200F311D8091D50690E011
S1131E408217930724F480E003C080E001C081E09E
S1131E50882391F0E12EF12C602F70E06A52794FC3
S1131E60A70189E491E00E940816F701E75BFE4FA1
S1131E701082202F210F01C0202F8091D506281712
S1131E8068F501E0020FE22FF0E0EA52F94F108109
S1131E90103260F4212F30E0200F311D8091D506DF
S1131EA090E08217930724F480E003C080E001C02F
S1131EB081E0882391F0E12EF12C602F70E06A52CA
S1131EC0794FA70189E291E00E940816F701E75DC6
S1131ED0FE4F1082202F210F01C0202F8091D506A4
S1131EE0281768F501E0020FE22FF0E0EA52F94FFB
S1131EF01081103160F4212F30E0200F311D8091CA
S1131F00D50690E08217930724F480E003C080E0B4
S1131F1001C081E0882391F0E12EF12C602F70E064
S1131F206A52794FA70189E191E00E940816F701EE
S1131F30E75EFE4F1082202F210F01C0202F8091D9
S1131F40D506281740F4E22FF0E0EA52F94F8081D9
S1131F5080933E052F5F8091D5062817B8F501E0E0
S1131F60020FE22FF0E0EA52F94F1081103158F5D8
S1131F70112361F0212F30E0200F311D8091D5060F
S1131F8090E08217930724F480E003C080E001C04E
S1131F9081E0882391F0E12EF12C602F70E06A52E9
S1131FA0794FA7018DE295E00E940816F701E35DE1
S1131FB0FA4F1082202F210F09C0111106C0109270
S1131FC02D05202F03C0202F01C0202F8091D5067E
S1131FD0281740F4A22FB0E0AA52B94F8C918093F5
S1131FE03D052F5F8091D506281740F4A22FB0E05D
S1131FF0AA52B94F8C9180930C052F5F8091D5061E
S11320002817F0F481E0820FE22FF0E0EA52F94F52
S1132010E081EE2361F04E2F50E0480F511D2091D6
S1132020D50630E02417350724F490E003C090E08F
S113203001C091E0992319F0282F2E0F01C0282FF9
S11320408091D5062817A8F501E0020FE22FF0E0F1
S1132050EA52F94F10818FEF810F8F3160F4212FF5
S113206030E0200F311D8091D50690E08217930750
S113207024F480E003C080E001C081E0882391F073
S1132080E12EF12C602F70E06A52794FA7018DE0A8
S113209095E00E940816F701E35FFA4F1082202FA3
S11320A0210F07C0111104C010920D05202F01C08B
S11320B0202F8091D506281788F5E22FF0E0EA5208
S11320C0F94F5081563168F4852F90E0820F911DAD
S11320D001966091D50670E06817790720F480E0D6
S11320E003C080E001C081E08823C1F02F5F30E0AD
S11320F0351770F4832F90E0FC01E20FF11DEA52D2
S1132100F94F4081FC01E451FB4F40833F5FF0CF26
S1132110E52FF0E0E451FB4F1082250F8091D506A6
S1132120281780F5E22FF0E0EA52F94F508156313A
S113213068F4852F90E0820F911D01966091D50679
S113214070E06817790720F480E003C080E001C0E4
S113215081E08823B9F02F5F30E0351770F4832FC6
S113216090E0FC01E20FF11DEA52F94F4081FC01BD
S1132170E453FB4F40833F5FF0CFE52FF0E0E4539F
S1132180FB4F10826EED71E080E091E00E94111629
S1132190892B51F064EE71E080E091E00E94111609
S11321A0892B21F411E003C011E001C010E063EDBC
S11321B072E089E491E00E941116892B29F411231D
S11321C019F081E08093C9044FE050E069E471E0C4
S11321D080E091E00E941A1610920F018091CA04C7
S11321E081112CC063ED72E089E491E00E94111624
S11321F0892B41F480913F05811120C081E00E9428
S1132200200A1CC06EED71E089E491E00E94111671
S1132210892B41F064EE71E089E491E00E9411168B
S1132220892B31F480913F05882321F080E003C09D
S113223080E001C081E081110E948E080E94520258
S1132240CDC28091D506823008F4C8C21091D70659
S1132250103108F0C3C2112361F0212F30E02E5F4A
S11322603F4F8091D50690E08217930724F480E0D5
S113227003C080E001C081E0882379F0E12EF12CD5
S1132280A70168ED76E08DE295E00E940816F7015B
S1132290E35DFA4F10821E5F07C0111104C0109253
S11322A02D0512E001C012E0212F30E0A9014E5F9C
S11322B05F4F8091D50690E08417950774F01F5FF7
S11322C0F901EA52F94F808180933D05E12FF0E056
S11322D0EA52F94F808180930C058091CA048111E0
S11322E032C080913F0581110AC063ED72E089E438
S11322F091E00E941116892B21F010E003C010E038
S113230001C011E0112321F081E00E94200A1BC0CA
S113231080913F05811114C06EED71E089E491E074
S11323200E941116892B49F064EE71E089E491E072
S11323300E941116892B19F003C011E001C011E0AD
S113234011110E948E080E94520248C28091CB044F
S1132350882351F080E10E9486028FE39CE9019773
S1132360F1F700C000003AC20E94480237C28091CF
S1132370CA04882329F08091CB04811103C003C0CF
S113238080E001C081E0882311F185B18B7F85B99C
S113239085B18D7F85B981E10E94810285B1846018
S11323A085B99FEF2DEE42E0915020404040E1F787
S11323B000C000001092CA0489E20E9486028FE3E2
S11323C09CE90197F1F700C0000011E001C010E0A2
S11323D08091D5068330A0F08091D706811181E0E9
S11323E080933D058091D80680930C0588EC8093FA
S11323F04A0580913D05811180910C050E9444029B
S11324008091CB04882339F08091CA04811105C0DE
S1132410111105C005C010E003C010E001C011E0B7
S1132420112309F4DBC163ED72E089E491E00E94B9
S11324301116892B51F480913F05811120C081E050
S11324408093C9040E94200A1AC06EED71E089E4E9
S113245091E00E941116892B41F064EE71E089E449
S113246091E00E941116892B31F480913F05882355
S113247019F010E001C010E011110E948E080E94B2
S11324805202ACC18091D506823008F4A7C1809174
S1132490D7068093C8048091C804882331F08091C2
S11324A01701823020F480E003C080E001C081E0A5
S11324B0882321F088ED92E00E944C0C8091C8049E
S11324C08823A9F08091C804882331F080911701F2
S11324D0823020F480E003C080E001C081E08823E2
S11324E009F47CC189EF93E00E944C0C77C1809180
S11324F0C804882331F080911701823020F480E0F1
S113250003C080E001C081E0882309F467C186EE3E
S113251092E00E944C0C62C18091D506823008F48E
S11325205DC18091D7068093170180911701843093
S113253018F083E0809317018091C804882331F058
S113254080911701823020F480E003C080E001C054
S113255081E0882321F081EF92E00E944C0C80916D
S1132560170190E00E94A70D89E094E00E944C0CB2
S113257035C18091CA04811131C180E099EAA1E09A
S1132580B0E08093460590934705A0934805B09327
S11325904905109242051092430510924405109289
S11325A04505109241051092400581E080933F0556
S11325B08091C804882331F080911701823020F47F
S11325C080E003C080E001C081E0882321F08BE03B
S11325D093E00E944C0C60914605709147058091F0
S11325E04805909149050E94010E89E094E00E94FB
S11325F04C0CF4C08091CA04882319F010923F0552
S1132600EDC080913F05882331F08091D506843058
S113261020F4E12C04C0E12C02C0EE24E394EE206B
S113262009F4DCC0F090D9068EEF8F0D8F3368F477
S1132630F0FC0DC08091D50690E004972F2D30E07A
S1132640821793072CF4E12C03C0E12C01C0E12C88
S1132650EE2009F4C3C08090420590904305A090F9
S11326604405B0904505C501B401969587957795C5
S1132670679520E431E040E050E00E94D1152B0141
S11326803C01C501B40120E832E040E050E00E9482
S1132690D1152B833C834D835E834F2D4695242F88
S11326A030E0D301C201AA27BB27840F911DA11DCD
S11326B0B11D81349140A105B10598F48F0C911C92
S11326C0A11CB11C8091460590914705A091480535
S11326D0B091490588159905AA05BB0518F4E12CA4
S11326E001C0E12CEE2009F479C0240D351DA901A7
S11326F0415051092B813C81B901C2010E94D10290
S113270085B18B7F85B985B1826085B900E010E021
S11327108F2D90E00817190748F4F801E652F94F95
S113272080810E9481020F5F1F4FF2CF85B18460C8
S113273085B98091420590914305A0914405B091DB
S113274045058F0D911DA11DB11D809342059093E8
S11327504305A0934405B0934505809140059091AD
S113276041050196909341058093400540914205AF
S1132770509143056091440570914505809146054B
S113278090914705A0914805B0914905481759070C
S11327906A077B0718F110923F058091C8048823CB
S11327A031F080911701823018F4E12C01C0E12C42
S11327B0EE2021F088E293E00E944C0C60914205E7
S11327C07091430580914405909145050E94010E46
S11327D089E094E00E944C0C0E948E081092D50669
S11327E010924E0526960FB6F894DEBF0FBECDBFED
S11327F0DF91CF911F910F91FF90EF90BF90AF9019
S11328009F908F907F906F905F904F90089584B7C2
S1132810877F84BF0FB6F894A89580916000886183
S113282080936000109260000FBE2FEF41EE54E0E1
S1132830215040405040E1F700C000000E9464086D
S11328408FEF90E722E0815090402040E1F700C0F4
S113285000008FE393E00E944C0C87E693E00E9413
S11328604C0C80E893E00E944C0C0E9426028BE9F9
S113287093E00E944C0C0E943B028DEA93E00E947C
S11328804C0C0E9467028FEB93E00E944C0C4FEFBC
S113289050E782E0415050408040E1F700C0000022
S11328A00E94590C81E792E00E944C0C85E0E3ED14
S11328B0F2E0A9E4B1E001900D928A95E1F78AE093
S11328C0E1EDF3E0A9E2B1E001900D928A95E1F720
S11328D08AE0E8EBF1E0A9E1B1E001900D928A957C
S11328E0E1F710923E0581E080933D058FEF8093E0
S11328F00C0580E8809318018BED93E00E944C0C4A
S113290078948EEE93E00E944C0C83E094E00E9455
S11329104C0CF8948091D0057894882341F1F89474
S11329206091D10570E0FB01ED52FA4FC0818091B6
S1132930D1058F5F81708093D1058091D00581503E
S11329408093D00578941C1624F74C2F50E076958C
S1132950762F6627779567956B527A4F86ED96E0CA
S11329600E940816C093D5060E94630ED2CF8091B0
S1132970CA0481118DC08091C7048F5F8093C704FE
S11329808530C0F01092C7040E942D0290934C052C
S113299080934B0580914A05882329F080914A054C
S11329A0815080934A0580913D05811180910C05E9
S11329B00E9444028091C5049091C60401969093AC
S11329C0C6048093C5040A9768F11092C604109255
S11329D0C50420914B0530914C05809115019091CF
S11329E016018217930738F420914B0530914C055A
S11329F0281B390B08C020914B0530914C05AC01C4
S1132A00421B530B9A012530310510F4019651F401
S1132A100E942A0C80914B0590914C0590931601CD
S1132A20809315018091C3049091C40401969093FE
S1132A30C4048093C3048A3F910518F11092C4041E
S1132A401092C3048CE094E00E944C0C80914B05DE
S1132A5090914C050E94A70D8CE194E00E944C0CCF
S1132A6080914B0590914C05892F0E94720D8091A5
S1132A704B0590914C050E94720D8CE793E00E94E7
S1132A804C0C8FE39CE90197F1F700C0000041CFA3
S1132A90F8948091D005789481110EC00E9444026C
S1132AA083B7817F83BF83B7816083BF7894889520
S1132AB083B78E7F83BF2DCF8FEC97E00197F1F71B
S1132AC000C0000026CF1F920F920FB60F92112460
S1132AD01F932F933F934F935F936F937F938F93A2
S1132AE09F93AF93BF93CF93DF93EF93FF93809123
S1132AF0C6008A3011F08D3079F580914F05882316
S1132B00E1F18091D005823020F5C091D205109179
S1132B104F0511230CF41FE7412F50E0D0E0CE0104
S1132B209695982F88279795879560E575E08B5241
S1132B309A4F0E940816CD52DA4F18838091D2051D
S1132B408F5F81708093D2058091D0058F5F8093D1
S1132B50D00510924F0511C090914F059F3758F43E
S1132B60E0914F0591E09E0F90934F05F0E0E05BFC
S1132B70FA4F808302C010924F05FF91EF91DF91CD
S1132B80CF91BF91AF919F918F917F916F915F9101
S1132B904F913F912F911F910F900FBE0F901F9057
S1132BA01895A1E21A2EAA1BBB1BFD010DC0AA1F7A
S1132BB0BB1FEE1FFF1FA217B307E407F50720F0A2
S1132BC0A21BB30BE40BF50B661F771F881F991F1D
S1132BD01A9469F760957095809590959B01AC0166
S1132BE0BD01CF010895EE0FFF1F0590F491E02D74
S1132BF00994A29FB001B39FC001A39F700D811DD2
S1132C001124911DB29F700D811D1124911D0895F1
S1132C10FB01DC0102C001900D9241505040D8F7F5
S1132C200895FB01DC018D91019080190110D9F305
S1132C30990B0895FB01DC014150504048F001908C
S1132C400D920020C9F701C01D9241505040E0F799
S1092C500895F894FFCF83
S1132C5664617461000000000000000000000000D0
S1132C66FFFFFFFFFFFFFF02807573620000000095
S1132C7600000000000000000050726F66696C6579
S1132C8620310000000000000000000000000000E9
S1132C960000000000000000006461746100000090
S1132CA60000000000000000004D415050494E470E
S1132CB6004C554D20414D4200454352414E004F74
S1132CC6464600302500466C6578506164005052D3
S1132CD64F46494C2031005553420049444C450067
S1132CE6424C5545544F4F54480046494C4149526D
S1132CF6450053414E532046494C002D0050524F37
S1132D0646494C0075736200626C7565746F6F7426
S1132D1668004C494149534F4E00484F54450054AE
S1132D264F55434845004C2E31004C2E3200696DF8
S1132D3661676500676966005B5446545D20726589
S1132D467365742068770D0A005B5446545D2073DE
S1132D567772657365740D0A005B5446545D20737F
S1132D666C706F75740D0A005B5446545D20636F76
S1132D766C6D6F640D0A005B5446545D206D61648E
S1132D8663746C0D0A005B5446545D20696E766F5D
S1132D966E0D0A005B5446545D20646973706F6E51
S1132DA60D0A005B5446545D2066696C6C20626CA7
S1132DB661636B0D0A005B5446545D2075690D0A08
S1132DC60053543737383920696E697469616C6900
S1132DD67A65640D0A003031323334353637383982
S1132DE6414243444546005B554152545D20436F7E
S1132DF66D6D616E642072656365697665643A20FB
S1132E063078005B554152545D2053657474696E85
S1132E1667204C4544206272696768746E657373F3
S1132E263A200064617461005B554152545D20444C
S1132E3665627567200064697361626C65640D0A76
S1132E46005B554152545D204C6F67206C65766576
S1132E566C2073657420746F3A20005B554152549C
S1132E665D20496D616765205258207374617274E0
S1132E762062797465733D005B554152545D204967
S1132E866D61676520636F6D706C65746520000DF8
S1132E960A3D3D3D2041546D65676133323850200B
S1132EA64C6967687420436F6E74726F6C6C6572DC
S1132EB6203D3D3D0D0A0055415254204261756442
S1132EC63A2035373630302028553258290D0A0035
S1132ED6426F6F742073657175656E6365207374D4
S1132EE661727465642E2E2E0D0A004144432069D6
S1132EF66E697469616C697A65640D0A0050574D90
S1132F0620696E697469616C697A65640D0A005397
S1132F16504920696E697469616C697A65640D0A41
S1132F260050726F66696C65203100554152542019
S1132F36696E697469616C697A65640D0A00496E23
S1132F46746572727570747320656E61626C656403
S1132F560D0A005265616479210D0A005B4C4947EC
S1132F6648545D204C6576656C3A200020283078FC
S1052F76000055
S9030000FC
