S014000061746D6567615F6C696768742E737265632A
S11300000C9434000C9446000C9446000C94460066
S11300100C9446000C9446000C9446000C94460044
S11300200C9446000C9446000C9446000C94460034
S11300300C9446000C9446000C9446000C94460024
S11300400C9446000C9446000C9446000C94460014
S11300500C9446000C9446000C9446000C94460004
S11300600C9491020C94460011241FBECFEFD8E0EB
S1130070DEBFCDBF21E0A0E0B1E001C01D92AB30F6
S1130080B207E1F70E9457020C949C030C94000001
S113009080E480937C0087E880937A000895EAE7FF
S11300A0F0E080818064808380917A0086FDFCCFBB
S11300B08091780090917900089581E284BD81E077
S11300C085BD8AB180628AB918BC08958093040101
S11300D088BD089580E58CBD81E08DBD84B18862C2
S11300E084B984B18F7E84B984B1846084B984B1C5
S11300F0826084B984B1816084B985B1846085B932
S113010085B1816085B908958EBD0DB407FEFDCF1C
S1130110089595B19B7F95B995B19D7F95B90E943E
S1130120840085B1846085B9089595B19B7F95B9A4
S113013095B1926095B90E94840085B1846085B9B7
S11301400895CF92DF92EF92FF920F931F93CF9374
S1130150DF93D82EC92E162F072FF42EE52EC22F8B
S1130160D32F8AE20E9489008C2D0E9495008D2D48
S11301700E9495008E2D0E9495008F2D0E9495005F
S11301808BE20E948900802F0E949500812F0E949B
S113019095008D2F0E9495008C2F0E9495008CE273
S11301A00E948900DF91CF911F910F91FF90EF90F2
S11301B0DF90CF900895EF92FF920F931F93CF9308
S11301C0DF93182F092F2FE331E04FEE50E060E06A
S11301D070E080E090E00E94A10085B18B7F85B93A
S11301E085B1826085B9E12CF12C80E4E81681E0C8
S11301F0F80688F4C0E0D0E0C03FD10540F4802F79
S11302000E948400812F0E9484002196F5CF8FEFF5
S1130210E81AF80AEACF85B1846085B9DF91CF91F5
S11302201F910F91FF90EF900895CF92DF92EF927C
S1130230FF920F931F93CF93DF937A0169019C017F
S1130240240F351F213F310528F020EF30E07901DC
S1130250E81AF90A9B012C0D3D1D2134314028F088
S113026020E431E06901C61AD70A9601260F371F28
S113027021503109A701480F591F415051090E94CB
S1130280A10085B18B7F85B985B1826085B9C0E055
S1130290D0E0EC9CC001ED9C900DFC9C900D1124D1
S11302A0C817D90740F4812F0E948400802F0E9430
S11302B084002196EECF85B1846085B9DF91CF911A
S11302C01F910F91FF90EF90DF90CF9008950F93BF
S11302D01F9385B18E7F85B983EC99E00197F1F77F
S11302E000C0000085B1816085B983EC99E0019775
S11302F0F1F700C0000081E00E9489008FE295E7D9
S11303000197F1F700C0000081E10E9489008FE2AB
S113031095E70197F1F700C000008AE30E94890085
S113032085E50E94950086E30E94890080E00E9492
S1130330950089E20E94890087E893E10197F1F72B
S113034000C0000080E090E00E94DB0083ED90E3B9
S11303500197F1F700C000000FEF1FEF24E630E033
S11303604CE850E062E370E082E390E00E94150103
S113037087EA91E60197F1F700C0000080E090E081
S11303800E94DB001F910F9108950F931F9380E04B
S113039090E00E94DB0000E114E82EE130E04CED37
S11303A050E064E170E08AE090E00E9415018091E1
S11303B00201909103018C32914050F0809102012E
S11303C0909103018C3B924030F000EE17E005C0A1
S11303D000E018EF02C000EE1FEF209102013091FF
S11303E003014CED429FC001439F900D11246FEF18
S11303F073E00E9474036115710549F02EE130E049
S1130400AB0164E170E08AE090E00E94150100E134
S113041014E82EE130E04CED50E060E570E08AE055
S113042090E00E941501809104012CED829FC0018F
S113043011246FEF70E00E9488036D3D710510F088
S11304406CED70E06115710559F00FE110E02EE1DB
S113045030E0AB0160E570E08AE090E00E941501B5
S113046080910401882369F000EE17E028E230E06F
S113047048E250E06CE870E084E690E00E941501E8
S11304800CC000E114E828E230E048E250E06CE8F7
S113049070E084E690E00E9415011F910F91089589
S11304A081E18093BA0085EC8093BC0008950E949A
S11304B048000E945D000E946A000E94670187EA6A
S11304C091E60197F1F700C000000E94C5010E9467
S11304D0500278940E944F00209102013091030150
S11304E08217930731F090930301809302010E94D5
S11304F0C501809100019091010101969093010141
S1130500809300010A9730F01092010110920001CB
S11305100E94C50187EA91E60197F1F700C0000047
S1130520D9CF1F920F920FB60F9211242F933F939E
S11305304F935F936F937F938F939F93AF93BF93E7
S1130540EF93FF938091B900887F803A09F4B0C09B
S113055060F48836E1F018F48036C9F0AFC0803812
S113056001F1883809F465C0A9C0883B09F487C043
S113057038F4883A09F463C0803B09F460C09EC033
S1130580803C09F48FC0883C09F48CC097C0109259
S1130590060110920501ECEBF0E08081806C808311
S11305A092C080910601811108C08091BB008093A4
S11305B0050181E08093060110C08091060184301A
S11305C060F4E091060181E08E0F80930601F0E073
S11305D08091BB00E95FFE4F8083809105018230EA
S11305E031F480910601823020F480E003C080E081
S11305F001C081E0882349F0809108010E946600CF
S11306000E94C501109206010EC09091050194301C
S113061021F490910601911181E0882321F00E9438
S1130620C50110920601ECEBF0E08081806C8083C0
S11306304AC0ECEBF0E080818068808344C0809104
S11306400501813039F48091020190910301809376
S1130650BB000FC080910501833029F4809104010F
S11306608093BB0006C080910201909103018093A6
S1130670BB00ECEBF0E08081806C808324C080912F
S11306800501813039F48091020190910301909326
S1130690BB0002C01092BB00ECEBF0E08081806CE8
S11306A0808311C0ECEBF0E08081806C80830BC010
S11306B0ECEBF0E08081806C808305C0ECEBF0E033
S11306C08081806C8083FF91EF91BF91AF919F9166
S11306D08F917F916F915F914F913F912F910F90E7
S11306E00FBE0F901F901895AA1BBB1B51E107C0AA
S11306F0AA1FBB1FA617B70710F0A61BB70B881FAE
S1130700991F5A95A9F780959095BC01CD0108953C
S113071097FB072E16F4009407D077FD09D00E94AA
S1130720740307FC05D03EF4909581959F4F08957E
S10F0730709561957F4F0895F894FFCFF9
S9030000FC
